:020000021000EC
:1090000000600020A59301005D9301005F930100C3
:10901000619301006393010065930100000000006B
:109020000000000000000000000000006793010045
:1090300069930100000000006B9301006D93010033
:109040005DAB01006F93010031AD01006F93010032
:1090500081AD010000000000E5AB01006F9301004D
:109060006F9301006F9301006F9301006F930100F4
:109070006F9301006F9301006F9301006F930100E4
:109080006F9301005D9E01006F9301006F930100DB
:109090006F9301006F93010039B501006F930100D8
:1090A0006F9301006F9301000000000000000000BA
:1090B0006F9301006F9301000000000000000000AA
:1090C00000000000000000000000000000000000A0
:1090D0000000000000000000000000000000000090
:1090E0000000000000000000000000000000000080
:1090F0000000000000000000000000000000000070
:10910000000000000000000000000000000000005F
:10911000000000000000000000000000000000004F
:10912000000000000000000000000000000000003F
:10913000000000000000000000000000000000002F
:10914000000000000000000000000000000000001F
:10915000000000000000000000000000000000000F
:1091600000000000000000000000000000000000FF
:1091700000000000000000000000000000000000EF
:1091800000000000000000000000000000000000DF
:1091900000000000000000000000000000000000CF
:1091A00000000000000000000000000000000000BF
:1091B00000000000000000000000000000000000AF
:1091C000000000000000000000000000000000009F
:1091D000000000000000000000000000000000008F
:1091E000000000000000000000000000000000007F
:1091F000000000000000000000000000000000006F
:10920000354936480A1A02D0072291438D4634491F
:1092100034480A1A06D00722914381F309880222B2
:1092200082F3148830483149314A00F044F831481B
:109230003149324A00F03FF831483249324A00F0B1
:109240003AF832483249334A00F035F83248334967
:10925000334A00F030F833483349344A00F02BF8F1
:1092600033483449344A00F026F83448344900225F
:1092700000F02CF833483449002200F027F8334836
:109280003349091A082902DB002202604160314A91
:1092900090471F481F49884205D00268043003B434
:1092A000904703BCF7E700208646EC4600200021EB
:1092B000294A9047FEE7884207D0521A05D0037822
:1092C00001300B700131013AF9D17047884202D068
:1092D00002700130FAE7704700600020005800205B
:1092E0000060002000600020E80F0200E01A00206B
:1092F000281B0020EC930100EC93010050C10100F9
:10930000E80F0200E01A0020E01A00202CC2010041
:109310002CC201002CC201002CC201002CC2010091
:109320002CC201002CC201002CC20100E60F020079
:1093300030100200281B0020281B0020281B0020C2
:10934000FC340020FC340020FC340020FC340020DD
:10935000FC3C0020BB930100A9B00100FEE7FEE742
:10936000FEE7FEE7FEE7FEE7FEE7FEE7FEE7FEE7D5
:1093700009480068094909680A280AD1002908D162
:10938000074802686FF070031A404FF040031A4319
:10939000026000F009B80000300100103401001034
:1093A000E40E0040FFF7E4BF0B484FF0070188438D
:1093B00085460A488047FFF723BF094809490A4AFA
:1093C000884207D0521A05D0037801300B70013162
:1093D000013AF9D17047000000600020D9A60100D1
:0C93E0002CC20100E01A0020E01A00205E
:1093EC007047000007B5044B0093044A402300F07B
:1093FC0032F803B05DF804FB0D940100291B00202A
:10940C002DE9F84388461446B2B10F4B0F4E032595
:10941C00002743F00109224608EB0701002001F068
:10942C00DFFE0744241A48B933782BB14FF47A4045
:10943C00C847013D02D13570BDE8F8830123337074
:10944C00002CE8D1F8E700BF30C20100281B002037
:10945C00704701F0F5BEF0B595B01D4616460846AE
:10946C000C4601F055F81A9B0D93CDE908650025C3
:10947C002B46082205A920460A958DF82C500C95F0
:10948C0001F062F8079B0293069B03939DF814303E
:10949C008DF8115003F00302012A1DD1BDF81420E0
:1094AC00059DC3F3C203C2F383168DF81030B200CE
:1094BC0008230EA9204601F047F8C5F3952508AB03
:1094CC000093324602AB0EA9284600F013FB20464F
:1094DC0001F022F815B0F0BD022AF8D1BDF81650F3
:1094EC00C3F3C203C5F389158DF810300827082D76
:1094FC002E4628BF08263B4632460EA9204601F0D0
:10950C0023F8AD1B08AB02AA31460EA8374400F075
:10951C0055FB002DEBD1DAE708B5FFF79AFF0448AD
:10952C00042100F057FA034B01225A7108BD00BF09
:10953C001CC20100E01A00200378024613F004005C
:10954C0006D003F00300012803D0022809D0012023
:10955C0070470B6812880233C2F3831213440B60FA
:10956C0070470B685288023303EB92130B60EEE7E3
:10957C002DE9F04FDFF81CA187B00F4600230446FD
:10958C00861C0DF1070015468DF8073000F010FC15
:10959C00DAF804203A60DAF8083003F580739B1A85
:1095AC000AF21C470AF583690AF21448B3421AD32B
:1095BC000020002D69D004F00F039B0143F005033C
:1095CC0063F30F00DAF80430DAB2033233444AF8AA
:1095DC0022009DF80700CAF8043000F00DFC0120B1
:1095EC0007B0BDE8F08F0121384600F0C0FC4846BA
:1095FC0000F0D5FC404600F0D2FCDAF808000290EE
:10960C00C0B203300AEB800002A9FFF795FF029B62
:10961C0030BBDAB20AEB8202D16803919A1C013397
:10962C00DBB20AEB83030292D3F80CB001F0030314
:10963C00012B22D0022B15D08346404600F0B2FC01
:10964C0010B1029BCAF808305946384600F08FFC1E
:10965C00DAF80830DAF8042003F580739B1AA5E7D2
:10966C00D8B2CEE7BDF80E30C3F3891303334FEAFB
:10967C001B4B02EB93030293DFE7BDF80C30C3F3F3
:10968C0083134FEA1B4B1344F5E7A40544F0060083
:10969C0098E700BF3C1C0020064B074810B5012280
:1096AC001A7000F0EEFE044610B9044800F056FFA4
:1096BC00204610BD3C1C002080C101006CC2010082
:1096CC0030B50A4C71B10A4A0A49121BD208002360
:1096DC009A4201D1002030BD31F82350854202D08E
:1096EC000133F5E7034654F83300F4E794C1010065
:1096FC001CC20100E01A0020094B013903EBC00029
:10970C00032909D8DFE801F00A0204060420704797
:10971C0000797047407970470020704702207047ED
:10972C0094C10100034BD3E90130C31A584258418C
:10973C00704700BF3C1C00202DE9F04186B0FFF7BC
:10974C00F1FF0546002840F0ED80774CC4F8180472
:10975C00BFF34F8FA3680293DBB2033304EB830098
:10976C0002A9FFF7E9FE029B18B1D4F81824002ACD
:10977C005AD0DAB2991C013304EB8202DBB204EB4F
:10978C008303D268DB68049302F00303022B039279
:10979C00029154D1BDF80E306448C3F38917502F91
:1097AC003E4628BF502606F1080166F38F13C1F31D
:1097BC000901ADF80E3000F07CFE0546002800F0E3
:1097CC009C8000F0A5FE0023082203A9284600F087
:1097DC00B1FE0299CB43DBB20133C9B20331B6EB14
:1097EC00830F4FEA830204EB810125D95FFA82F8DB
:1097FC000823A6EB0806284600F09CFEF6B208F1FA
:10980C0008034B4903F0FC033246284600F092FE55
:10981C00029B033703EB97070297D4F81834002BFD
:10982C0043D1D4F8106453E062689A4294D8A26091
:10983C00284606B0BDE8F08108233246E5E7012B47
:10984C005BD1BDF80C303948C3F38311062928BF0E
:10985C00062161F38913023101F00F018900ADF883
:10986C000C3000F026FE0546002846D000F050FED5
:10987C000023082203A9284600F05CFE0026BDF850
:10988C000C20C2F38312B300964203F10803C4D236
:10989C0002994A1CC9B20331029204EB81010422E1
:1098AC00284600F047FE0136E9E7284600F034FE72
:1098BC00FFF738FF80F00105EDB2B9E7F3685B798B
:1098CC0023B1336829461B6830469847F3681E68F5
:1098DC00002EF3D1284600F01FFE0DF107008DF885
:1098EC00076000F065FAD4F818340BB9029BA3603A
:1098FC009DF8070000F080FADAE7D4F8104454B968
:10990C000C4B0D480D49C01AC008000440F0020071
:10991C0000F05CF8CCE7236820469B689847E36826
:10992C001C68ECE7002583E73C1C002080C101008B
:10993C00481C002094C10100C4C1010054C20100A4
:10994C002DE9F34704460E46924601A9012218461A
:10995C009946FFF70DFE1B4F10B3019D4FF0000809
:10996C00AA1CC84508EB020123D11748002100F0BE
:10997C00CFFA80F31000000440EA1440E4006B1CA2
:10998C0004F03804DBB2EDB244F0010407EB8303BE
:10999C00033544EA881444EA8624D86047F8254005
:1099AC003B781BB1FFF7C8FE0028FBD102B0BDE825
:1099BC00F087C9B207EB81015AF82830CB6008F167
:1099CC000108CEE73C1C00205820002000231A463A
:1099DC00FFF7B6BF30B50F4CD4F810240346002067
:1099EC00114631B9D96808714AB9C4F810340A6003
:1099FC0030BDC9680D79854206D00968F1E7D26897
:109A0C0014680C601360F3E701300A28E8D14FF0BA
:109A1C00FF30EDE73C1C002038B5084B0125D3F88E
:109A2C0010441D7004B938BDE3685D71236820468D
:109A3C005B689847E3681C68F4E700BF3C1C002097
:109A4C00C38873B504460D4633B1144A00921449C9
:109A5C00144A284600F009FB217A05291CD0637AA8
:109A6C004BB1A088FFF748FE0F4B104953F820204C
:109A7C00284600F0FAFA227A0D4BA08853F822609F
:109A8C000021FFF71DFE0B4903463246284602B063
:109A9C00BDE8704000F0E9BA02B070BD98C2010098
:109AAC0080C2010078C2010004C301009DC2010004
:109ABC0028C30100A0C2010010B5037A052B0C4687
:109ACC000FD0437A23B1084A0849204600F0CDFA5A
:109ADC000749204600F0C9FA2046BDE8104000F0C6
:109AEC00B9BA002AF8D0F3E798C201009DC2010070
:109AFC00E7C301002DE9F04385B01F460C9D002300
:109B0C0095F80C902B7306460C4690462946384621
:109B1C00FFF796FFB8F1060F09D8DFE808F004123A
:109B2C00181F283340003146284600F09EFA0022C8
:109B3C0029463846FFF7C0FF85F80C9005B0BDE804
:109B4C00F08322683146284600F08FFAEFE7D4E91B
:109B5C0000233146284600F088FAE8E7A368009312
:109B6C003146D4E90023284600F07FFADFE7E368AA
:109B7C000193A36800933146D4E90023284600F0F2
:109B8C0074FAD4E723690293E3680193A368009302
:109B9C003146D4E90023284600F067FAC7E7636929
:109BAC00039323690293E3680193A36800933146FE
:109BBC00D4E90023284600F058FAB8E708292DE923
:109BCC00F74F80460E4617461C463DD800251B7B9A
:109BDC002573214610460193FFF732FFDFF888A06A
:109BEC00DFF888B0AE4232D918F805205946204625
:109BFC0000F03BFA0135082DF4D11D49DFF874A0B3
:109C0C00DFF874B0204600F030FA4FF000094E45F2
:109C1C0024D918F809507E2D1ED8284602F012FAC5
:109C2C00002814BF2A462E225946204600F01DFA61
:109C3C0009F10109B9F1080FE9D101222146384691
:109C4C00FFF73AFF019B237303B0BDE8F08F514639
:109C5C00204600F00AFACDE72E22E5E751462046D1
:109C6C0000F003FAE4E700BFB0C20100AAC2010091
:109C7C00B4C20100B2C20100B6C201001FB500217E
:109C8C00039001AA44F20100CDE9011100F004F89F
:109C9C0005B05DF804FB000038B572B6FFF7BCFEEA
:109CAC00FFF74AFD0028FBD1104B114C114D124906
:109CBC00E41AE408240444F00100FFF787FED5F809
:109CCC00F030DB0700D500BE0C4944F00200FFF772
:109CDC007DFEBFF34F8FEA68094B02F4E062134339
:109CEC00EB60BFF34F8F00BFFDE700BF94C10100D5
:109CFC00C4C1010000ED00E047C3010053C30100E3
:109D0C000400FA0508B50A4800F08CF8094AD2E9B3
:109D1C000031C018084BD3E9002341F100019042F7
:109D2C0071EB030303D210F1807041F1000108BD07
:109D3C00E81A0020F82000201021002037B5054635
:109D4C000C460A4801A900F08DF860B1057044601A
:109D5C0001A9064800F0B0F818B1054800F066F803
:109D6C00002003B030BD0420FBE700BF0021002021
:109D7C00E81A002038B5037F04460D4683B982618A
:109D8C00FFF7C0FF2369281841F10001C4E9020163
:109D9C0003B1256121460020BDE83840FFF7CEBF56
:109DAC00002038BD0023014603770120FFF7C6BF12
:109DBC0070B5EFF3108672B60C4A946801239CB907
:109DCC0093600B4B0B4DD3F8801029401160C3F8F6
:109DDC008050D3F8841051604FF0FF32C3F88420C8
:109DEC00047006B962B670BD0370FAE71821002042
:109DFC0000E100E0FC06FFBD084B9A6810B55AB1B3
:109E0C0050B9EFF3108172B6054A1C6814605C6897
:109E1C005460986001B962B610BD00BF18210020D3
:109E2C0000E100E00368D3F80405704790F90430B2
:109E3C00002B09DB5A09012103F01F0301FA03F37C
:109E4C004032024941F82230704700BF00E100E087
:109E5C00024B034A1B681068184700BF2C210020D6
:109E6C002421002037B550E8013F9DB2C489254418
:109E7C008489A54228BF2D1B0489A54202BFBFF3CC
:109E8C002F8F002207E0C5EA030540E80154002C9F
:109E9C00E9D14FF001028DF803200193019A0A6079
:109EAC009DF8031001F0FF0321B1006810FA82F055
:109EBC0003B030BD1846FBE70A884B889A4209D19B
:109ECC0050E8012FC2EA024240E80123002BF7D1EF
:109EDC00012070470020704701F01F024B0901213F
:109EEC00914000EB830000F01EB801F01F0301222B
:109EFC009A404B0900EB8300D14300F02CB84B097E
:109F0C0001F01F0150F82300C84000F00100704719
:109F1C0010B5034653E8000F0A4643E8002494F0BA
:109F2C00000FF7D110BD10B5034653E8002F42EADD
:109F3C00010043E8000494F0000FF6D110BD10B5F9
:109F4C00034653E8000F00EA010243E8002494F0B2
:109F5C00000FF6D110BD10B5034653E8002F02EAEE
:109F6C00010043E8000494F0000FF6D110BD10B5C9
:109F7C00034653E8002F02EB010043E8000494F081
:109F8C00000FF6D110BD10B5034653E8002FA2EB1D
:109F9C00010043E8000494F0000FF6D110BD01213C
:109FAC00FFF7C1BF0021FFF7CABF10B590B1D0E9D0
:109FBC00012301689B1ADBB20A60013BDBB2FF2B69
:109FCC00026802D10020107110BD11684C1C146085
:109FDC000B70F2E70E20F7E737B5054600240DF1BC
:109FEC0007008DF80740FFF7E3FE2A686B681168DD
:109FFC0099420ED9481E106011F8013CEC68298A70
:10A00C0001FB0344AB6811791B1ADBB2994238BFD0
:10A01C0013719DF80700FFF7EFFE204603B030BD2B
:10A02C0037B5054600230DF107000C468DF80730B7
:10A03C00FFF7BEFE2A681368591C1160E968641AA0
:10A04C00298AB4FBF1F41C709DF80700FFF7D4FECD
:10A05C0003B030BD826810B504462AB1436901686B
:10A06C00006998470023A36010BD0EB403B5039993
:10A07C0021B104AB01AA019300F076F802B05DF8AF
:10A08C0004EB03B070470A2938B504460D4602D1DB
:10A09C000D21FFF7F8FFA3682268591CA160D55465
:10A0AC00D4E901329A4204D32046BDE83840FFF788
:10A0BC00D1BF38BD2DE9F84F9846DDE90A43154666
:10A0CC0082460F460A464FF00109AA420FD2C145FB
:10A0DC0038BFC14613F0010B01D16CB90024012625
:10A0EC00B8F1010F1BD908F1FF386E43F8E709F1FD
:10A0FC000109B2FBF5F2E8E79B070ED5B8F1000FAA
:10A10C000CBF30262026A145E9D2013C31465046F1
:10A11C00FFF7B9FF002CF6D1E0E72026F3E7B7FBF9
:10A12C00F6F39D42E1D9DFF83C80B7FBF6F35046DD
:10A13C0018F8031006FB1377FFF7A5FF3346AB4265
:10A14C00B6FBF5F6F1D2BBF1000F02D00CB1A14574
:10A15C0001D3BDE8F88F20215046013CFFF793FF57
:10A16C00F4E700BF6AC301002DE9F74F0546174617
:10A17C008846002900F03E8118F8011B49B92B7B59
:10A18C00002B00F03781284603B0BDE8F04FFFF7F5
:10A19C0061BF252940F0B780002698F800302D2BA0
:10A1AC00424608F1010823D0302B24D02B2B25D08C
:10A1BC0000242A2B02F1010123D13B681A1D1B68D4
:10A1CC003A601C440A4613782E2B26D101324FF0EC
:10A1DC00000A104610F8011BA1F1300CBCF1090F5C
:10A1EC001DD80A2303FB0A13A3F1300A0246F0E739
:10A1FC0046F00106D1E746F00206CEE746F004062B
:10A20C00CBE711F8013CA3F130000928DBD80A2276
:10A21C0002FB0434303C0A46CBE74FF0000A12F83C
:10A22C00011B01F0FB0068289046F8D0782909D86A
:10A23C006F290CD8632962D022D8252963D05829DC
:10A24C0000F0888098F80030002B95D197E7703992
:10A25C000829F7D801A353F821F000BFDBA30100B4
:10A26C0051A2010051A2010071A3010051A20100F1
:10A27C004FA3010051A2010051A2010061A30100F2
:10A28C00642901D06929DDD13A68D2F80090111DFA
:10A29C0089EAE9723960A2EBE9724FF0010B092AE5
:10A2AC0035DCD34538BFD3462CB1B9F1000F01DBF7
:10A2BC00720700D5013CB30702D5BAF1000F03D0E9
:10A2CC00F00701D44CBB0024B9F1000F2DDAC9F111
:10A2DC0000092D212846FFF7D6FE06F00302022ABC
:10A2EC0004D1BAF1000F01D11CBB0024CDE900460A
:10A2FC0053460A2249462846FFF7DCFEA2E73B6894
:10A30C001A1D19783A602846FFF7BDFE9AE70A2312
:10A31C000BF1010BB2FBF3F2C1E7A345D4D2202120
:10A32C002846013CFFF7AFFECCE77107D5D52B21B2
:10A33C00D0E7A345DAD230212846013CFFF7A3FE33
:10A34C00D2E73968CDE900460A1D3A6053460A2225
:10A35C000968D0E739680A1D3A60CDE900465346D2
:10A36C001022F5E73B681A1D3A6016F00106D3F887
:10A37C00009024D1B9F1000F03D0484601F0B2FE91
:10A38C000646B4421DD809F1FF3919F8011F0029FE
:10A39C003FF458AF2846FFF776FEF6E7284601361D
:10A3AC00FFF771FE19F806100029F7D1A642BFF489
:10A3BC0049AF20212846013CFFF765FEF6E7002651
:10A3CC00F0E720212846013CFFF75DFED9E73B680A
:10A3DC001A1D3A60302128461C68FFF754FE78217C
:10A3EC002846FFF750FE00220823CDE90032214613
:10A3FC00102280E703B0BDE8F08F00BF2DE9F84FC5
:10A40C00B0F806A04579D2F800B09DF828900AFB68
:10A41C0005F5043D88460BEB0301A94203F1040446
:10A42C0088BFA5EB030BB4FBFAF607460AFB1644F0
:10A43C00C2F800B04EB9AAEB04055D4528BF5D46D5
:10A44C00BBF1000F04D1BDE8F88F3F68013EF1E786
:10A45C00043408EB06003C442A46B9F1000F0DD039
:10A46C002146ABEB050B01F0F2FDDA452E443F68BB
:10A47C0055464FF0000428BF5D46E1E701462046F3
:10A48C00EFE7FFF792BDF8B546790146721E054617
:10A49C00002393422D6803D30024A64202D8F8BDB2
:10A4AC000133F6E70F682846FFF7BAFD0134394649
:10A4BC00F3E72DE9F843068ACD1C0746FFF78CFD20
:10A4CC00043E35440446B5FBF6F5F0B14FF4807309
:10A4DC00EDB28380C680013D076081464FF00008D5
:10A4EC00A84512D23846FFF777FD064648B1637986
:10A4FC000133637108F10108C9F800000760814657
:10A50C00EEE72046FFF7BFFF34462046BDE8F88350
:10A51C0001210430FFF72BBD10B501210446043096
:10A52C00FFF731FDC0B220B92046BDE81040FFF75F
:10A53C00AABF10BD1FB503920022009203AAFFF719
:10A54C005DFF05B05DF804FB1FB50392012200927C
:10A55C0003AAFFF753FF05B05DF804FB83680022E4
:10A56C005A60C3E904229A60DA601A6070470B687B
:10A57C004A684360934208BF0023016008BF4360F0
:10A58C007047436843B10268916852680B44934228
:10A59C00436004BF00234360704700007FB503781D
:10A5AC008DF804304368029383688DF80C30C368CF
:10A5BC0004930369064A8DF81430064B01A853F82E
:10A5CC00213052F82110984707B05DF804FB00BF0A
:10A5DC003021002034210020F0B50546174615F82F
:10A5EC0004CB124A42F82C70114A42F82C30114B11
:10A5FC000C460FCB85B06E4686E80F00236800939F
:10A60C0023798DF8053063798DF80630A3680293B1
:10A61C00002FA389084AADF80C3008BF3A466346B0
:10A62C003146284600F0D0FB05B0F0BD34210020A7
:10A63C003021002090C30100A9A50100BFF34F8F6A
:10A64C000549064BCA6802F4E0621343CB60BFF3C2
:10A65C004F8F00BFFDE700BF00ED00E00400FA05DE
:10A66C004FF08053D3F83001421C04BF4FF07043BD
:10A67C0093F8E00F831F5842584170474FF07043D6
:10A68C0093F8E02F062A09D1D3F8E83FC3F303135C
:10A69C00033B032B02D8024AD05C70470020704762
:10A6AC00A8C301004FF08053D3F83001421C04BF03
:10A6BC004FF0704393F8E00F062804D0A0F10A0382
:10A6CC0058425841704701207047000008B5FFF709
:10A6DC00C7FF40B14FF08053A44AD3F82433C3F3DF
:10A6EC000423C2F84035FFF7C9FF10B1A04BA14AB3
:10A6FC005A67FFF7D7FF48B14FF080534FF08042B5
:10A70C00D3F84432C3F34233C2F83C35FFF7B6FFFB
:10A71C0030B1994AD2F8FC3023F08073C2F8FC3087
:10A72C00FFF7C0FF40B14FF080430022C3F80C216B
:10A73C00C3F81021C3F83825FFF7A0FF20B14FF064
:10A74C0080430322C3F8A025FFF798FF60B18B4B21
:10A75C000522C3F810260122C3F888260022C3F86C
:10A76C0018263F22C3F814264FF08053D3F830211B
:10A77C00501C09BF4FF07043D3F8343193F8E02FDD
:10A78C00D3F8E83F08BFC3F30313062A4ED1033BAB
:10A79C00032B03D87A4AD35C002B49D04FF080525C
:10A7AC00784BD2F80414C3F82015D2F80814C3F867
:10A7BC002415D2F80C14C3F82815D2F81014C3F8C9
:10A7CC002C15D2F81414C3F83015D2F81814C3F899
:10A7DC003415D2F81C14C3F84015D2F82014C3F861
:10A7EC004415D2F82414C3F84815D2F82814C3F829
:10A7FC004C15D2F82C14C3F85015D2F83014C3F8F9
:10A80C005415D2F83414C3F86015D2F83814C3F8C0
:10A81C006415D2F83C14C3F86815D2F84014C3F888
:10A82C006C15D2F84424C3F8702501E00A2AB5D07F
:10A83C00FFF716FF48B14FF080534FF08042D3F82A
:10A84C00583203F04F03C2F8E43EFFF72BFF48B138
:10A85C004FF08043D3F80024D10744BF6FF00102BE
:10A86C00C3F800244FF08053D3F83021062A0ED1C0
:10A87C00D3F83431033B032B02D8434AD35CBBB12E
:10A88C00424AD2F83C3743F48063C2F83C374FF06D
:10A89C008053D3F830210A2A0AD1D3F834313BB192
:10A8AC004FF08042D2F8E43E43F00F03C2F8E43E8E
:10A8BC004FF01023D3F80022002A03DBD3F8042234
:10A8CC00002A23DA324B0122C3F80425D3F80024E2
:10A8DC00002AFBD04FF010221521C2F80012D3F839
:10A8EC000024002AFBD04FF010231522C3F80422B9
:10A8FC00274BD3F80024002AFBD00022C3F80425F0
:10A90C00D3F80024002AFBD0FFF798FED3F80022DE
:10A91C00D20703D4D3F80432DB0722D51C4B012217
:10A92C00C3F80425D3F80024002AFBD04FF01022E2
:10A93C000021C2F80012D3F80024002AFBD04FF0FB
:10A94C0010230022C3F80422114BD3F80024002A50
:10A95C00FBD00022C3F80425D3F80024002AFBD036
:10A96C00D2E70C4B0C4A1A6008BD00BF0030014006
:10A97C0000C007400DF0ADBA00ED00E00050004003
:10A98C00A0C3010000C00040A4C30100001000409F
:10A99C0000E00140F01A00200090D00338B5074CBD
:10A9AC00051E04F1080318BF1C4623682BB11A6856
:10A9BC0022605B6828469847F7E738BD40210020A5
:10A9CC0020B9054B01225A70FFF7E8BF012802D1CC
:10A9DC00014A9070F8E770473821002020B9034BEA
:10A9EC0001225A70FFF7DABF704700BF38210020F0
:10A9FC0038B50E4C2378B3B90D486360A36023615E
:10AA0C00E36000F075F8054600F076FD08B900F03B
:10AA1C007BF801232370074BD3F800340BB10123CF
:10AA2C00A370284638BD8525F5E700BF38210020E6
:10AA3C00CDA901000000014037B50D4C00230DF1EC
:10AA4C0007008DF80730FFF7B3F9E368013BE360CB
:10AA5C00E36833B9074BD3F8005415B900F066F826
:10AA6C00A5709DF80700FFF7C7F903B030BD00BF14
:10AA7C003821002000000140012813B50CD0032818
:10AA8C0020D038B9134B0122C3F88020BFF34F8F6D
:10AA9C00BFF36F8F02B010BD0F4C00230DF10700F8
:10AAAC008DF80730FFF784F923780BB9FFF7A0FF77
:10AABC00E3689DF807000133E3600123A370FFF7FF
:10AACC009BF9E7E700F020F802B0BDE81040FFF773
:10AADC00B3BF00BF00E100E03821002000F180404E
:10AAEC00002382B0036003680193019B02B070479E
:10AAFC00044B0246187918B91A6001229A807047E3
:10AB0C00852070474C210020074B1A68D20704D4CB
:10AB1C00C02283F8002301221A604FF080430122E7
:10AB2C00C3F81825704700BF00E100E04FF08042E9
:10AB3C0008B50223C2F808334FF48270FFF7CEFF3A
:10AB4C000123D360D2F81834DB03FBD408BD00001A
:10AB5C004FF0804110B5D1F8003163B14FF48070E3
:10AB6C00FFF7BCFF0D4B58790122C1F8082310B92F
:10AB7C005A711B6898474FF08042D2F8043163B188
:10AB8C004FF48270FFF7AAFF0223C2F80833034B7D
:10AB9C00BDE810401B680120184710BD4C21002057
:10ABAC0000F1804000F5C040002382B003600368D0
:10ABBC000193019B02B07047800000F1A040D0F8D7
:10ABCC00002722F44032C0F80027D0F8003743EABF
:10ABDC000143C0F8003770472DE9F74F00244E4D64
:10ABEC0001944FF48072012102F1804303F5C043BC
:10ABFC0090B21B68012B06D1D5F804330B4202D05E
:10AC0C00FFF7CEFF0C430432B2F5907F4FEA4101BF
:10AC1C00EAD1414BD3F87C31012B0CD14FF4BE70EF
:10AC2C00FFF7BEFF4FF0A04344F00044D3F82025BB
:10AC3C000192C3F82025E3B2D3B1384F0025012689
:10AC4C00344210D0AB0003F1804303F5C043D3F87A
:10AC5C001005D3F8101557F8253023B1C1F3014175
:10AC6C00C0F3042098470135082D4FEA4606E7D17A
:10AC7C00002C48DA294D4FF0A048294E4FF000091E
:10AC8C00012716F9013B5A1C31D0C3F3C20202A9A9
:10AC9C000A44DCB212F8042C03F03F0A03F0070359
:10ACAC0007FA03F31A4222D00AF5E073504658F81B
:10ACBC002330C3F3014BBBF1020F0CBF0321022164
:10ACCC00FFF77AFF07FA0AF3C8F8203505EB0A03F9
:10ACDC0093F9303055F823304BB1A109032904D036
:10ACEC00BBF1020F12D1012901D15046984709F14D
:10ACFC000109B9F1040FC4D1D8F820350193C8F873
:10AD0C002035002BB9D103B0BDE8F08FBBF1030F98
:10AD1C00EDD10229E8E700BF00600040542100207B
:10AD2C00A4210020014B1B68184700BFB021002054
:10AD3C000E4B984237B50C4602D0002003B030BD04
:10AD4C0000230DF107008DF80730FFF731F8084BA1
:10AD5C001D7915B901221C601A719DF80700FFF7C7
:10AD6C004BF8002DE9D01120E8E700BF002000408F
:10AD7C00B02100204FF0402382B0D3F81821EAB163
:10AD8C000022C3F81821D3F818310193019B0C4B06
:10AD9C00D97FFF2907D0987F01228A404FF0A0412C
:10ADAC0048B1C1F80C2500225A771A72D3E9002158
:10ADBC00044802B01047C1F80825F4E702B0704708
:10ADCC00B8210020C02100202DE9F74F90F8048015
:10ADDC00644E01924FF0240909FB08F906EB090BAC
:10ADEC009A469BF81C3007460C46002B40F0B58069
:10ADFC0005685D492846FFF79BFF002840F0AF80AF
:10AE0C00019B46F80930CBF804A094F800E094F8C4
:10AE1C000CC04FF0A042012303FA0EF3BCF1010F5A
:10AE2C0094BFC2F80C35C2F808350EF5E073012159
:10AE3C0042F823106378FF2B1FBF9940C2F80C1502
:10AE4C0003F5E0714FF0030918BF42F82190A27886
:10AE5C0008BF4FF0FF33FF2A1FBF02F5E0714FF020
:10AE6C00A04A4FF0040B4AF821B04FF0240101FB2B
:10AE7C00086618BF914686F82020E2783949F277A7
:10AE8C0008BF4FF0FF39FF2A17D094F804A04FF0F9
:10AE9C00010B0BFA02FB4FF0A046BAF1000F4ED09B
:10AEAC00C6F80CB502F5E0724FF0030B46F822B071
:10AEBC00242202FB081282F81EA0C5F808E5C5F88A
:10AECC000C35A368C5F81095C5F82435637B003B99
:10AEDC0018BF0123BCF1020F34D0BCF1030F34D0E6
:10AEEC00BCF1010F01D143F00203C5F85435A3792D
:10AEFC00C5F8C0350723C5F80035019BABB13B68DD
:10AF0C00627943F307355201002DC3F30733D2B2F4
:10AF1C001EDB164C661986F8002301226D0903F01E
:10AF2C001F0302FA03F344F82530242303FB081112
:10AF3C0000234B7701230B7703B0BDE8F08FC6F8E5
:10AF4C0008B5AFE743F00403CFE743F00603CCE7C3
:10AF5C00074C03F00F03E254E7E70820ECE711205D
:10AF6C00EAE700BFB821002081AD010000E100E05C
:10AF7C0014ED00E02DE9F3410779474E24237B4380
:10AF8C001446F2180D46517F8646002940F0818008
:10AF9C00F35823B114F0140F04BF0123537795E831
:10AFAC000F004FF0240C0CFB076C0CF10C0888E81C
:10AFBC000F009CF81F20FF2A08D09CF81E100123BC
:10AFCC0093404FF0A042C1B1C2F80835296821B1B5
:10AFDC0001F06043B3F1005F06D1AA6882B102F0C0
:10AFEC006043B3F1005F0BD0242303FB07660023FF
:10AFFC007377102002B0BDE8F081C2F80C35E5E79C
:10B00C00DEF800306868C3F84415C3F84805E968F1
:10B01C00C3F834250022C3F83815C3F81821D3F827
:10B02C0018210192019A14F0010218BF0122C3F8F1
:10B03C00502514F0020218BF0122C3F84025220744
:10B04C005CBF01221A6124227A43B258B2B9D3F8F8
:10B05C001821002AFBD0242303FB0766F27FFF2A6A
:10B06C0007D0B07F012393404FF0A04218B1C2F833
:10B07C000C350020BEE7C2F80835BBE714F004001D
:10B08C004FF0400202D0C3F80823F2E7C3F80423C0
:10B09C00B0E71120AEE700BFB821002008B54FF48F
:10B0AC0080410020FEF7F8FA08B1FEF7E7FDFEF745
:10B0BC0033FA00F09BFC08B1FEF7E0FD064B0748A5
:10B0CC000749C01AC008000440F00300FEF77EFCDC
:10B0DC0000F01CFCFEE700BF94C10100C4C10100DC
:10B0EC00D3C301000369C26893429CBF80681B18DC
:10B0FC00013B981A70472DE9F843D0E902940546B4
:10B10C00A9EB04084068904520440F46144404D928
:10B11C0000F09DFFEC60BDE8F8834246A4EB090407
:10B12C0000F095FF6868224607EB0801F0E72DE96F
:10B13C00F843C5680646894617464FF0000834693F
:10B14C00B3687068A54228BFE418013C621B5C1B05
:10B15C00BC4228BF3C46944228BF1446494628446A
:10B16C00224600F074FFB3682544AB4208BF0025AB
:10B17C003F1BA044A144F560E1D14046BDE8F883F3
:10B18C0010B5114C114AA2610223C4E90433104BCF
:10B19C00E361A2644FF400730E4A0F492362E26428
:10B1AC0000231022E01DA3626362E362A365636562
:10B1BC00E365226500F074FF0849204600F070FF3B
:10B1CC002023A37110BD00BFDC210020EAC30100C5
:10B1DC006422002054220020F3C30100F7C30100B5
:10B1EC0070B5164B182400FB04451D4404FB0033BA
:10B1FC001646DC6A012C0ED0022C18D0E4B9284675
:10B20C00FFF770FF864204D832462846FFF773FFDB
:10B21C003446204670BD2846FFF764FF864234460C
:10B22C0028BF044622462846FFF765FFF1E728466B
:10B23C00BDE87040FFF77BBF0024EAE7DC2100206B
:10B24C00FFF79EBF034B1A8882420CBF18460020A2
:10B25C00704700BF80240020024B9B6903B1184744
:10B26C00704700BF6424002013B50B46497A024690
:10B27C000E4871B9D0E901101C7A002C18BF014698
:10B28C005868FEF777FD78B102B0BDE81040FFF7C3
:10B29C00E3BF00211972436933B101218DF8041009
:10B2AC00ADF8062001A8984702B010BD6424002018
:10B2BC004B8802889A4212D842889A420FD38088CF
:10B2CC008B8840F2F311884294BF021A421A9A42B8
:10B2DC0005D80844984234BF002001207047002054
:10B2EC00704700000388122B70B5014659D004D862
:10B2FC00102B1ED0112B44D070BD502BFCD12F4BDA
:10B30C00C288DB899A42F7D1038A022BF4D1868852
:10B31C003046FFF797FF05460028EDD001F11200EB
:10B32C0000F0E6F838BB6868FEF73CFD0028E3D077
:10B33C0009E0C37B012BDFD14FF6FF70FFF782FFD3
:10B34C00054620B90420BDE87040FFF785BF1C4AB4
:10B35C008E880680002303721368C0F80A30536885
:10B36C00C0F80E3010310A30FFF7A2FF134B687291
:10B37C00DB89002BC0D129463046BDE87040FFF771
:10B38C0073BF8088FFF75EFF04460028B4D0406886
:10B39C00FEF708FD08B1FFF75FFF4FF6FF73238040
:10B3AC00AAE786883046FFF74DFF05460028A3D054
:10B3BC0008310A30FFF77CFF6872DCE76424002058
:10B3CC00942400200AB1FEF787BDFEF78EBD73B53D
:10B3DC000191019C06466CB100252C46294601A81A
:10B3EC00FEF78DFD18B106EB440301349D80013549
:10B3FC00142DF3D13046346002B070BD2DE9F0430A
:10B40C0003888488103B8DB00A2B1ED8DFE803F02C
:10B41C0006361D1D1D1D1D1D1D5B3D002E4FBB68E1
:10B42C00DB43009379686846FEF795FD009901A807
:10B43C00FFF7CDFF0DF108080026019B9E4207D3B4
:10B44C00132C12D90420FEF719FC0DB0BDE8F083C3
:10B45C0038F8029B00250135494607EB8500FEF7BD
:10B46C0044FD1E2DF7D10136E7E721461B48FEF7B8
:10B47C0033FD1B482146FEF72FFDE6E71748214612
:10B48C000DB0BDE8F043FEF730BD027A15483F2AF7
:10B49C004FEA1215214694BF00220122FFF792FFBA
:10B4AC00022D94BF002201220F482146FFF78AFF8C
:10B4BC00012D0E4894BF0022012221460DB0BDE89B
:10B4CC00F043FFF77FBF037A002BBED1427A0548C9
:10B4DC00C2F3C0022146F1E79C240020A4240020E2
:10B4EC00A0240020B4240020B0240020AC24002090
:10B4FC00008800F001007047014B1878704700BFBE
:10B50C001825002007B508496846FFF730F8019B5D
:10B51C0013B903B05DF804FBD3E9002090476846EB
:10B52C00FFF72FF8F3E700BF14C40100FFF7EABFE1
:10B53C0061DF704730B5134B1B7891B0FBB1124DE6
:10B54C0034240DF1020103A8ADF80240FFF7F0FF1F
:10B55C0070B9294601A8FFF70AF8029B002BF0D01E
:10B56C0003A8D3E90021904701A8FFF70AF8F4E7F4
:10B57C00052804D011B0BDE83040FEF77FBB11B0F8
:10B58C0030BD00BF192500202CC401004BDF7047D3
:10B59C001FB50E4C01A8FFF7F9FF70B9214602A8A0
:10B5AC00FEF7E5FF039B002BF4D00198D3E90021B3
:10B5BC00904702A8FEF7E5FFF4E7052804D004B095
:10B5CC00BDE81040FEF75ABB04B010BD44C40100E6
:10B5DC0038B5054D044645F001054FF47A40A847AF
:10B5EC00013CFAD138BD00BF70C401004FF0A0433C
:10B5FC000322C3F828274FF48062C3F8082570474C
:10B60C0007B540688DF80710002100F01DFA0121E4
:10B61C000DF1070000F044FA03B05DF804FB07B528
:10B62C0040688DF80710012100F00EFA01210DF190
:10B63C00070000F035FA03B05DF804FB10B50446C2
:10B64C00E06800F011FA0128FAD010BD10B5002105
:10B65C000446006800F0F8F9C82000F013FA2068DE
:10B66C00012100F0F1F9BDE81040C82000F00ABA41
:10B67C00F8B502230126C0E9006300220323C0E9C8
:10B68C00022380274FF49473C0E90473044600F03E
:10B69C002BFA0546002879D12046FFF7D7FF204624
:10B6AC00FFF7CCFF12212046FFF7AAFF2046FFF739
:10B6BC00C5FF31462046FFF7A3FF27212046FFF7A1
:10B6CC00AEFF31462046FFF7AAFF29462046FFF77A
:10B6DC00A6FF11212046FFF793FF31462046FFF7C6
:10B6EC009EFF44212046FFF78BFF29462046FFF79B
:10B6FC0096FF0F212046FFF792FF45212046FFF7CA
:10B70C007FFF27212046FFF78AFF31462046FFF7AF
:10B71C0086FF29462046FFF782FF29462046FFF781
:10B72C007EFF3C212046FFF76BFF05212046FFF7EB
:10B73C0076FF18212046FFF763FF39462046FFF7B6
:10B74C006EFF21212046FFF75BFF29462046FFF7BD
:10B75C0066FF39462046FFF762FF4E212046FFF771
:10B76C004FFF29462046FFF75AFF4F212046FFF78F
:10B77C0047FF27212046FFF752FF20463146FFF7AF
:10B78C004EFF2046FFF75AFF2846F8BD4FF0FF3515
:10B79C00FAE72DE9F74F1E4616F0FD0B9DF83430F5
:10B7AC009DF83080019304460D461CD12621FFF7ED
:10B7BC0027FF05EB0B1A0027ABF11709B8F1000FA7
:10B7CC004AD1B9F1F90F45D9019B002B42D0FF2189
:10B7DC0020460137FFF723FF102FEFD10BF1010BA0
:10B7EC00BBF5947FE5D1012E22D824212046FFF70A
:10B7FC0007FF6FF01609002740F2111BEB1905EB40
:10B80C00091A00260193B8F1000F2AD1B9F1F90FEA
:10B81C0094BF1AF80610FF2120460136FFF7FFFEF1
:10B82C00102EF0D109F10109D94507F11007E5D126
:10B83C0020462221FFF7E4FE2046F721FFF7EFFE1A
:10B84C0020462021FFF7DCFE204603B0BDE8F04F78
:10B85C00FFF7F4BE0021BBE71AF80710C943C9B2C1
:10B86C00B6E7019B995DD7E710B510210446FFF7A9
:10B87C00C7FE20460121FFF7D2FEBDE81040642030
:10B88C00FFF7A6BEF8B54FF0A0444FF000774FF08D
:10B89C0080564FF08045C4F81875C820C4F8186558
:10B8AC00C4F81855C4F80875C4F80865C4F80855E8
:10B8BC00C4F80C75FFF78CFEC820C4F80875FFF7A8
:10B8CC0087FEC820C4F80C65FFF782FEC820C4F8B8
:10B8DC000865FFF77DFEC820C4F80C55FFF778FE0D
:10B8EC00C820C4F80855FFF773FEC4F80C75C820BF
:10B8FC00C4F80C65C4F80C55FFF76AFEC4F808755B
:10B90C00C4F80865C4F80855F8BD0000F0B5304E11
:10B91C00304F8FB0FF25FFF769FEFFF7B3FF00F044
:10B92C0081F83046FFF7A4FE384600954FF4877334
:10B93C00FA22802100F0F2F84FF48773FA2280216A
:10B94C000095002000F0EAF8022000F00BF93846D0
:10B95C0000F002F9284600F065F980227823009364
:10B96C0011461D480023002400F0EAFA0223CDE919
:10B97C0001432323194682222046009400F0CCF97F
:10B98C00164904A800F08CFB04AA154B2046CDE9FF
:10B99C0000540A2100F098FA124904A800F080FB28
:10B9AC0004AA114B2D212046CDE9005400F08CFA4D
:10B9BC003046FFF74BFE2346224639463046CDE94A
:10B9CC000044FFF7E6FE3046FFF74EFF0FB0F0BD28
:10B9DC00BC3400201A25002076C4010050C401009C
:10B9EC000C1B002059C40100041B00201FB50B4B7D
:10B9FC000FCB6C4684E80F0040F60E43ADF80030D8
:10BA0C0009238DF803304FF08053029300231A461C
:10BA1C0021460348FEF7E0FD04B010BD78CC0100D0
:10BA2C0098CC01004FF0A043402120220C20C3F8F9
:10BA3C001815C3F81825C3F81007C3F80C15C3F86C
:10BA4C000C25D3F810357047064B53F820200123F2
:10BA5C0093404FF0A04201290CBFC2F80835C2F840
:10BA6C000C357047D4340020054A4FF0A04352F8EF
:10BA7C002000D3F8103523FA00F000F001007047D5
:10BA8C00D434002038B5044638B1044D45F00105D6
:10BA9C004FF47A40A847013CFAD138BD90CC010054
:10BAAC0030B50F4D2B6885B04FF0A0420124C9B2C0
:10BABC0004FA03F3C2F80C350090019100220948F6
:10BACC006946CDE90222FFF755FA08B1FEF7D6F820
:10BADC002B689C404FF0A043C3F8084505B030BD1F
:10BAEC00D43400209CCC0100074A084B12681A6021
:10BAFC00074A12685A60074A12689A60064A126826
:10BB0C00DA600020704700BFF81A0020D4340020FF
:10BB1C00001B0020FC1A0020F41A002010B50D4C5C
:10BB2C002060BDF80800A08111F0070F4FEAD1008A
:10BB3C0018BF01306082002021816281A282E381E2
:10BB4C0020820BB1B42B02D1A180E28010BDA28067
:10BB5C00E180FBE7E4340020014B1860704700BF24
:10BB6C00E434002003289CBF014B1882704700BFAF
:10BB7C00E43400202A4B30B59C88844209D3DC88FD
:10BB8C008C4206D3DC89B42C19D003D884B15A2C3E
:10BB9C0009D030BDB4F5877FFBD15C89013C241AF8
:10BBAC000846A1B204E01C89013C641A0146A0B20B
:10BBBC001C8A032CEDD8DFE804F00F0B2B271C8913
:10BBCC00013C201A5C89013C611A80B289B2EFE712
:10BBDC001C89013C201A80B21C898442D9D35C890F
:10BBEC008C42D6D35D8AC0F3CF0401FB054100F033
:10BBFC0007001C68802343FA00F040B2635662B918
:10BC0C0023EA00036354C4E71C89013C201A80B268
:10BC1C005C89013C611A89B2DEE70343F2E700BF9D
:10BC2C00E4340020F0B50B4900238C8A9AB294427C
:10BC3C000CD8F0BD0C6897B205FB06440132E055F8
:10BC4C004D8A94B2A542F5D80133EEE700229EB29C
:10BC5C00F6E700BFE43400202DE9F74F1C462D4BCE
:10BC6C000D4699888142064613D3DB88AB4210D32C
:10BC7C009DF83030012B47D1A3B267000093013FF0
:10BC8C004FF00008031B0FFA88FBBB451FFA88F91D
:10BC9C0020DB03B0BDE8F08F06EB0B00001B002887
:10BCAC0015DB6818001B002811DB0193009BE81AB8
:10BCBC001FFA81FA10FA81F189B21FFA89F0FFF7A5
:10BCCC0059FF0AF10101019B09B2B942E4DB08F109
:10BCDC000108D8E700219944F7E737440021BFB2A7
:10BCEC001FFA81F915FA81F189B23846FFF742FF44
:10BCFC0009F1010109B28C42F2DC08F1010844455A
:10BD0C001FFA88F7E9DCC4E74FF00008013D461E36
:10BD1C00F5E700BFE43400202DE9F04F16463B4A0E
:10BD2C008BB094881F46BDF85030079384429DF821
:10BD3C00543003938B469DF8583063D3D2888A4293
:10BD4C0060D3B4425ED3BA425CD3A6EB0008A7EB37
:10BD5C000109B8F1000FB8BFC8F10008B9F1000F24
:10BD6C00B8BFC9F10009C9F100020492B04234BF56
:10BD7C0001224FF0FF320592B94234BF01224FF03D
:10BD8C00FF320692A8EB09050024039A0134012A1C
:10BD9C005FFA84FA2AD10322BAFBF2F404EB4404CE
:10BDAC00AAEB040414F0FF0420D1039A0092594624
:10BDBC00FF2209930890FFF74FFFDDE90803049A6F
:10BDCC00B2EB450F06DC86421CD0059A1044A5EB5D
:10BDDC00090580B2B8EB450FD7DB5F4512D0069A48
:10BDEC000BEB020145441FFA81FBCEE701220092C6
:10BDFC005946079A099308905446FFF72DFFDDE941
:10BE0C000803DCE70BB0BDE8F08F00BFE434002082
:10BE1C002DE9F74F1C462B4B01919988BDF83090BA
:10BE2C00BDF834A08142054615D3DB8801998B42BD
:10BE3C0011D3A18811F0070318BF012303EBD10321
:10BE4C00E188203A4A432168002702FB0316E28866
:10BE5C00B9B28A422FD803B0BDE8F08F00F00703C7
:10BE6C000093009A96F800C0802343FA02F2B9F1CD
:10BE7C00FF0F02EA0C0216D12AB128445246594649
:10BE8C0080B2FFF777FE009B072B08BF013608F145
:10BE9C000108A2881FFA88F09042DFD3530718BF1D
:10BEAC0001360137D3E7284480B212B152465946C5
:10BEBC00E7E74A46FBE7019B19444FF000081FFADD
:10BECC0081FBE6E7E43400202DE9F04FDFF86C90BD
:10BEDC008846B9F8041085B08142BDF838A0BDF889
:10BEEC003CB0074609D3B9F80610414505D3561E98
:10BEFC004446054616F8012F12B905B0BDE8F08F7F
:10BF0C009888B9F804C0D988039328446045C4BF05
:10BF1C006418A4B2B9F806002144C8BF3D4681425A
:10BF2C00C4BF3D4644462846CDE900AB2146FFF749
:10BF3C006FFF039B9A881544ADB2DBE7E434002015
:10BF4C0000292DE9F045B8BF0731114FC9104FF04A
:10BF5C00000E1FFA8EF4944218DA079D05EB040CC0
:10BF6C004FEA0C1C002501FB040406E03E6814F8A3
:10BF7C0008A066441E4406F808A01FFA85F841453F
:10BF8C0005F10105F2D80EF1010EE2E7BDE8F085EE
:10BF9C00E43400207F2805D8034B185C034B5B5C12
:10BFAC001840704700207047B40D0200340E020098
:10BFBC00A0F16103192B98BF20387047A0F1410301
:10BFCC00192B98BF203070477F2805D8034B185C7D
:10BFDC00034B5B5C1840704700207047B40D0200A7
:10BFEC00340E0200A0F16103192B98BF2038704762
:10BFFC00A0F14103192B98BF203070477F299ABFBD
:10C00C00017001206FF02E0070475AB10A787F2A18
:10C01C000AD800B10260002119605960501A18BF8B
:10C02C0001207047002070476FF02E007047000011
:10C03C0008B5034B5B689B681B68984708BD00BF3D
:10C04C00141B002008B50921FFF7F2FF08BD844638
:10C05C0040EA010313F0030F18D18446202A0BD3B6
:10C06C002DE9F007B1E8F807A0E8F807A2F12002E3
:10C07C00202AF7D2BDE8F007042A07D351F8043B75
:10C08C0040F8043BA2F10402042AF7D2002A05D09E
:10C09C0011F8013B00F8013B013AF9D160467047B9
:10C0AC00024610F0030F16D111F0030F13D12DE936
:10C0BC00F0004FF001374FF0803351F8044BA4EBF4
:10C0CC00070525EA04051D4002D142F8044BF4E7AC
:10C0DC00A1F10401F0BC11F8013B02F8013B002B6B
:10C0EC00F9D1704700F1010110F0030F11D010F8D5
:10C0FC00012B002A23D010F0030F0AD010F8012BCB
:10C10C00002A1CD010F0030F03D010F8012B002ACA
:10C11C0015D02DE970004FF001324FF0803350F8FC
:10C12C00044BA4EB020525EA04051D4000D1F6E7FB
:10C13C00A0F1040070BC10F8012B002AFBD1A0EB7D
:04C14C000100704737
:08C15000E9A901000000000054
:10C1580009B4010000000000F1B201000000000075
:08C1680085AA0100000000009F
:10C1700041B50100000000009DB501000000000075
:10C180006C1B0020341C00203C1C0020741B002071
:04C190001800000093
:10C19400B2C3010000000000B8C3010000000000A9
:10C1A400BFC3010000000000CEC301000000000076
:10C1B400C3C3010000000000C8C301000000000068
:10C1C40065C20100000004043CC30100000000003B
:10C1D40060C3010000000000ACC3010000000000C7
:10C1E4008CC3010000000404FEC301000000040429
:10C1F4000BC401000000030320C40100000003037A
:10C2040038C40100000003037AC3010000000000E9
:08C2140083C3010000000000DB
:10C21C0038C201000000000044C20100E01A0020F6
:10C22C00000000000338FDD870470000F1930100B6
:10C23C005D940100ED9301007274745F6C6F675F25
:10C24C006261636B656E64004261636B656E6473FF
:10C25C0020666C7573686564006170700000000086
:10C26C005C2000207F000000DC2000201B5B313BA9
:10C27C0033316D0025734C6F67732064726F70706F
:10C28C006564202825642925730D0A001B5B306D1D
:10C29C00002573003C25733E2025733A2000202591
:10C2AC0030327800202020007C002563001B5B319D
:10C2BC003B33306D001B5B313B33326D001B5B310C
:10C2CC003B33336D001B5B313B33346D001B5B31F7
:10C2DC003B33356D001B5B313B33366D001B5B31E3
:10C2EC003B33376D007761726E696E6700696E66FD
:10C2FC006F0064656275670098C20100B9C20100E5
:10C30C0078C20100C1C20100C9C20100D1C2010042
:10C31C00D9C20100E1C20100E9C201000000000025
:10C32C004DC30100F1C20100F9C20100FEC20100BF
:10C33C006170705F627574746F6E00466174616CCD
:10C34C00206572726F720053797374656D2072651B
:10C35C00736574006170705F74696D657200303163
:10C36C003233343536373839414243444546707799
:10C37C00725F6D676D7400736F72746C69737400A7
:10C38C0067667800FFFFFFFF0006FF00000000401B
:10C39C00000000000000010100000001010000008D
:10C3AC00636C6F636B00434C4F434B004750494FDA
:10C3BC00544500505253005541525400554152546B
:10C3CC0045005350494D00535049206578616D70BC
:10C3DC006C6520737461727465642E0D0A0054656B
:10C3EC00726D696E616C0052545400534547474559
:10C3FC0052006E72665F626C655F67617474006E8A
:10C40C0072665F736468000070C1010080C1010036
:10C41C00080000006E72665F7364685F626C650092
:10C42C0058C1010068C10100080000006E72665F0F
:10C43C007364685F736F630050C1010058C10100E1
:10C44C00080000005245534552564544004265725F
:10C45C006B6179204172736C616E0000000000000A
:10C46C00000000000338FDD87047FFFFFFFFFFFFFF
:10C47C00FFFFFFFFFFFFFFFFFFFFFFFFFFFFFFFFC0
:10C48C00FFFFFFFFFFFFFFFFFFFFFFFFFFFFFFFFB0
:10C49C00FFFFFFFFFFFFFFFFFFFFFFFFFFFFFFFFA0
:10C4AC00FFFFFFFFFFFFFFFFFFFFFFFFFFFFFFFF90
:10C4BC00FFFFFFFFFFFFFFFFFFFFFFFFFFFFFFFF80
:10C4CC00FFFFFFFFFFFFFFFFFFFFFFFFFFFFFFFF70
:10C4DC00FFFFFFFFFFFFFFFFFFFFFFFFFFFFFFFF60
:10C4EC00FFFFFFFFFFFFFFFFFFFFFFFFFFFFFFFF50
:10C4FC00FFFFFFFFFFFFFFFFFFFFFFFFFFFFFFFF40
:10C50C00FFFFFFFFFFFFFFFFFFFFFFFFFFFFFFFF2F
:10C51C00FFFFFFFFFFFFFFFFFFFFFFFFFFFFFFFF1F
:10C52C00FFFFFFFFFFFFF00003FFFFFFFFFFFFFF19
:10C53C00FFFFFFFFFFFFC00003FFFFFFFFFFFFFF39
:10C54C00FFFFFFFFFFFF000003FFFFFFFFFFFFFFE9
:10C55C00FFFFFFFFFFFE000003FFFFFFFFFFFFFFDA
:10C56C00FFFFFFFFFFFC000003FFFFFFFFFFFFFFCC
:10C57C00FFFFFFFFFFF8000003FFFFFFFFFFFFFFC0
:10C58C00FFFFFFFFFFF0000003FFFFFFFFFFFFFFB8
:10C59C00FFFFFFFFFFE0000003FFFFFFFFFFFFFFB8
:10C5AC00FFFFFFFFFFC0000003FFFFFFFFFFFFFFC8
:10C5BC00FFFFFFFFFFC0000003FFFFFFFFFFFFFFB8
:10C5CC00FFFFFFFFFF80000003FFFFFFFFFFFFFFE8
:10C5DC00FFFFFFFFFF00000003FFFFFFFFFFFFFF58
:10C5EC00FFFFFFFFFF00000003FFFFFFFFFFFFFF48
:10C5FC00FFFFFFFFFE00000003FFFFFFFFFFFFFF39
:10C60C00FFFFFFFFFE00000003FFFFFFFFFFFFFF28
:10C61C00FFFFFFFFFC00000003FFFFFFFFFFFFFF1A
:10C62C00FFFFFFFFFC00000003FFFFFFFFFFFFFF0A
:10C63C00FFFFFFFFF800000003FFFFFFFFFFFFFFFE
:10C64C00FFFFFFFFF800000003FFFFFFFFFFFFFFEE
:10C65C00FFFFFFFFF000000003FFFFFFFFFFFFFFE6
:10C66C00FFFFFFFFF000000003FFFFFFFFFFFFFFD6
:10C67C00FFFFFFFFF000000003FFFFFFFFFFFFFFC6
:10C68C00FFFFFFFFE000000003FFFFFFFFFFFFFFC6
:10C69C00FFFFFFFFE000000003FFFFFFFFFFFFFFB6
:10C6AC00FFFFFFFFC000000003FFFFFFFFFFFFFFC6
:10C6BC00FFFFFFFFC000000003FFFFFFFFFFFFFFB6
:10C6CC00FFFFFFFFC000000003FFFFFFFFFF007F25
:10C6DC00FFFFFFFFC000000003FFFFFFFFF000079C
:10C6EC00FFFFFFFF8000000003FFFFFFFF80000142
:10C6FC00FFFFFFFF8000000003FFFFFFFE000000B4
:10C70C007FFFFFFF8000000003FFFFFFF800000029
:10C71C001FFFFFFF0000000003FFFFFFF000000001
:10C72C000FFFFFFF0000000003FFFFFFE000000011
:10C73C0003FFFFFF0000000003FFFFFFC00000002D
:10C74C0001FFFFFF0000000003FFFFFF800000005F
:10C75C0000FFFFFE0000000003FFFFFF00000000D1
:10C76C00007FFFFE0000000003FFFFFE0000000042
:10C77C00003FFFFE0000000003FFFFFC0000000074
:10C78C00003FFFFE0000000003FFFFF80000000068
:10C79C00001FFFFE0000000003FFFFF80000000078
:10C7AC00000FFFFC0000000003FFFFF00000000082
:10C7BC00000FFFFC0000000003FFFFF00000000072
:10C7CC000007FFFC0000000003FFFFE0000000007A
:10C7DC000007FFFC0000000003FFFFE0000000006A
:10C7EC000003FFFC0000000003FFFFC0000000007E
:10C7FC000003FFFC0000000003FFFFC0000000006E
:10C80C000003FFFC0000000003FFFFC0000000005D
:10C81C000001FFFC0000000003FFFFC0000000004F
:10C82C000001FFF80000000003FFFF800000000083
:10C83C000001FFF80000000003FFFF800000000073
:10C84C000001FFF80000000003FFFF800000000063
:10C85C000001FFF80000000003FFFF800000000053
:10C86C000001FFF80000000003FFFF800000000043
:10C87C000000FFF80000000003FFFF800000000034
:10C88C000000FFF80000000003FFFF800000000024
:10C89C000000FFF80000000003FFFF800000000014
:10C8AC000001FFF80000000003FFFF800000000003
:10C8BC000001FFF80000000003FFFF8000000000F3
:10C8CC000001FFF80000000003FFFF8000000000E3
:10C8DC000001FFF80000000003FFFFC00000000093
:10C8EC000001FFF80000000003FFFFC00000000083
:10C8FC000001FFFC0000000003FFFFC0000000006F
:10C90C000003FFFC0000000003FFFFC0000000005C
:10C91C000003FFFC0000000003FFFFE0000000002C
:10C92C000003FFFC0000000003FFFFE0000000001C
:10C93C000007FFFC0000000003FFFFF000000000F8
:10C94C000007FFFC0000000003FFFFF000000000E8
:10C95C00000FFFFC0000000003FFFFF800000000C8
:10C96C00000FFFFC0000000003FFFFF800000000B8
:10C97C00001FFFFE0000000003FFFFFC0000000092
:10C98C00003FFFFE0000000003FFFFFE0000000060
:10C99C00003FFFFE0000000003FFFFFF000000004F
:10C9AC00007FFFFE0000000003FFFFFF800000007F
:10C9BC0000FFFFFE0000000003FFFFFFC0000000AF
:10C9CC0001FFFFFF0000000003FFFFFFE00000007D
:10C9DC0003FFFFFF0000000003FFFFFFF00000005B
:10C9EC000FFFFFFF0000000003FFFFFFF800000037
:10C9FC001FFFFFFF0000000003FFFFFFFE00000011
:10CA0C007FFFFFFF8000000003FFFFFFFF8000019E
:10CA1C00FFFFFFFF8000000003FFFFFFFFF0000798
:10CA2C00FFFFFFFF8000000003FFFFFFFFFF007F01
:10CA3C00FFFFFFFFC000000003FFFFFFFFFFFFFF32
:10CA4C00FFFFFFFFC000000003FFFFFFFFFFFFFF22
:10CA5C00FFFFFFFFC000000003FFFFFFFFFFFFFF12
:10CA6C00FFFFFFFFC000000003FFFFFFFFFFFFFF02
:10CA7C00FFFFFFFFE000000003FFFFFFFFFFFFFFD2
:10CA8C00FFFFFFFFE000000003FFFFFFFFFFFFFFC2
:10CA9C00FFFFFFFFF000000003FFFFFFFFFFFFFFA2
:10CAAC00FFFFFFFFF000000003FFFFFFFFFFFFFF92
:10CABC00FFFFFFFFF000000003FFFFFFFFFFFFFF82
:10CACC00FFFFFFFFF800000003FFFFFFFFFFFFFF6A
:10CADC00FFFFFFFFF800000003FFFFFFFFFFFFFF5A
:10CAEC00FFFFFFFFFC00000003FFFFFFFFFFFFFF46
:10CAFC00FFFFFFFFFC00000003FFFFFFFFFFFFFF36
:10CB0C00FFFFFFFFFE00000003FFFFFFFFFFFFFF23
:10CB1C00FFFFFFFFFE00000003FFFFFFFFFFFFFF13
:10CB2C00FFFFFFFFFF00000003FFFFFFFFFFFFFF02
:10CB3C00FFFFFFFFFF00000003FFFFFFFFFFFFFFF2
:10CB4C00FFFFFFFFFF80000003FFFFFFFFFFFFFF62
:10CB5C00FFFFFFFFFFC0000003FFFFFFFFFFFFFF12
:10CB6C00FFFFFFFFFFC0000003FFFFFFFFFFFFFF02
:10CB7C00FFFFFFFFFFE0000003FFFFFFFFFFFFFFD2
:10CB8C00FFFFFFFFFFF0000003FFFFFFFFFFFFFFB2
:10CB9C00FFFFFFFFFFF8000003FFFFFFFFFFFFFF9A
:10CBAC00FFFFFFFFFFFC000003FFFFFFFFFFFFFF86
:10CBBC00FFFFFFFFFFFE000003FFFFFFFFFFFFFF74
:10CBCC00FFFFFFFFFFFF000003FFFFFFFFFFFFFF63
:10CBDC00FFFFFFFFFFFFC00003FFFFFFFFFFFFFF93
:10CBEC00FFFFFFFFFFFFF00003FFFFFFFFFFFFFF53
:10CBFC00FFFFFFFFFFFFFFFFFFFFFFFFFFFFFFFF39
:10CC0C00FFFFFFFFFFFFFFFFFFFFFFFFFFFFFFFF28
:10CC1C00FFFFFFFFFFFFFFFFFFFFFFFFFFFFFFFF18
:10CC2C00FFFFFFFFFFFFFFFFFFFFFFFFFFFFFFFF08
:10CC3C00FFFFFFFFFFFFFFFFFFFFFFFFFFFFFFFFF8
:10CC4C00FFFFFFFFFFFFFFFFFFFFFFFFFFFFFFFFE8
:10CC5C00FFFFFFFFFFFFFFFFFFFFFFFFFFFFFFFFD8
:10CC6C00FFFFFFFFFFFFFFFFFFFF0000FFFFFFFFC6
:10CC7C0006FF000000000040000000000000000063
:10CC8C00000000000338FDD87047000000000000D1
:10CC9C000040004000000000010000000000000007
:10CCAC000000000000000000000000000000000078
:10CCBC0000000000000000000000000000000C005C
:10CCCC000C000C000C000C000C000C000C00000004
:10CCDC000C0000000000000000000000000000003C
:10CCEC001DC01DC0088008800880000000000000E6
:10CCFC0000000000000000000000000000000D809B
:10CD0C000D800D800D803FC01B003FC01B001B0021
:10CD1C001B001B00000000000000000004001F802E
:10CD2C003180318038001E000F000380318031804B
:10CD3C003F00040004000000000000000000180088
:10CD4C002400240018C007801E00318002400240DD
:10CD5C000180000000000000000000000000000046
:10CD6C000F001800180018000C001D80370033004D
:10CD7C001D8000000000000000000000000000000A
:10CD8C000700070002000200020000000000000083
:10CD9C000000000000000000000000000000030084
:10CDAC00030006000E000C000C000C000C000E0022
:10CDBC000600030003000000000000000000180043
:10CDCC0018000C000600060006000600060006000F
:10CDDC000C001C0018000000000000000000060001
:10CDEC0006003FC03FC00F001F80198000000000EC
:10CDFC000000000000000000000000000000000027
:10CE0C0000000400040004003F800400040004003F
:10CE1C000000000000000000000000000000000006
:10CE2C0000000000000000000000000000000600F0
:10CE3C0004000C00080008000000000000000000C6
:10CE4C0000000000000000003F8000000000000017
:10CE5C0000000000000000000000000000000000C6
:10CE6C0000000000000000000000000000000C00AA
:10CE7C000C000000000000000000000000C000C01A
:10CE8C00018001800300030006000C000C00180058
:10CE9C0018003000300000000000000000000E0000
:10CEAC001B003180318031803180318031801B001A
:10CEBC000E00000000000000000000000000060052
:10CECC003E000600060006000600060006000600EE
:10CEDC003FC00000000000000000000000000F0038
:10CEEC00198031803180030006000C0018003000DE
:10CEFC003F800000000000000000000000003F0028
:10CF0C006180018003001F0003800180018061802B
:10CF1C003F000000000000000000000000000700BF
:10CF2C0007000F000B001B00130033003F800300B1
:10CF3C000F800000000000000000000000001F80B7
:10CF4C001800180018001F0011800180018021803A
:10CF5C001F0000000000000000000000000007801F
:10CF6C001C00180030003700398031803180198066
:10CF7C000F000000000000000000000000007F0017
:10CF8C004300030006000600060006000C000C001F
:10CF9C000C000000000000000000000000001F005A
:10CFAC003180318031801F0031803180318031807F
:10CFBC001F000000000000000000000000001E0028
:10CFCC0033003180318033801D80018003000700E5
:10CFDC003C00000000000000000000000000000009
:10CFEC00000000000C000C000000000000000C0011
:10CFFC000C00000000000000000000000000000019
:10D00C000000000003000300000000000000060008
:10D01C0004000800080000000000000000000000F0
:10D02C0000C0030004001800600018000400030096
:10D03C0000C0000000000000000000000000000024
:10D04C000000000000007FC000007FC00000000056
:10D05C0000000000000000000000000000000000C4
:10D06C00600018000400030000C003000400180056
:10D07C006000000000000000000000000000000044
:10D08C001F0031803180018007000C000C00000073
:10D09C000C000000000000000000000000000E006A
:10D0AC001100210021002700290029002700200061
:10D0BC0011000E0000000000000000000000000045
:10D0CC003F000F000900198019801F8030C030C04C
:10D0DC0079E00000000000000000000000000000EB
:10D0EC007F003180318031803F0031803180318050
:10D0FC007F000000000000000000000000000000A5
:10D10C001F4030C0604060006000600060403080B4
:10D11C001F000000000000000000000000000000E4
:10D12C007F00318030C030C030C030C030C0318062
:10D13C007F00000000000000000000000000000064
:10D14C007F803080308032003E0032003080308072
:10D15C007F800000000000000000000000000000C4
:10D16C007FC03040304032003E0032003000300092
:10D17C007C00000000000000000000000000000027
:10D18C001E80318060806000600067C061803180EB
:10D19C001F00000000000000000000000000000064
:10D1AC007BC03180318031803F8031803180318053
:10D1BC007BC0000000000000000000000000000028
:10D1CC003FC006000600060006000600060006002A
:10D1DC003FC0000000000000000000000000000044
:10D1EC001FC003000300030003006300630063001F
:10D1FC003E000000000000000000000000000000E5
:10D20C007BC03180330036003C003E00330031805F
:10D21C0079C00000000000000000000000000000C9
:10D22C007E0018001800180018001840184018400C
:10D23C007FC00000000000000000000000000000A3
:10D24C00E0E060C071C07BC06AC06EC064C060C0EA
:10D25C00FBE00000000000000000000000000000E7
:10D26C0073C0318039803D80358037803380318088
:10D27C0079800000000000000000000000000000A9
:10D28C001F00318060C060C060C060C060C0318071
:10D29C001F00000000000000000000000000000063
:10D2AC007F0031803180318031803F003000300090
:10D2BC007E000000000000000000000000000000E4
:10D2CC001F00318060C060C060C060C060C0318031
:10D2DC001F000CC01F8000000000000000000000B8
:10D2EC007F003180318031803E00330031803180CD
:10D2FC007CE00000000000000000000000000000C6
:10D30C001F803180318038001F00038031803180D4
:10D31C003F000000000000000000000000000000C2
:10D32C007F804C804C804C800C000C000C000C005E
:10D33C003F000000000000000000000000000000A2
:10D34C007BC03180318031803180318031803180BF
:10D35C001F000000000000000000000000000000A2
:10D36C007BC0318031801B001B001B000A000E00AB
:10D37C000E00000000000000000000000000000093
:10D38C00FBE060C064C06EC06EC02A803B803B80F6
:10D39C0031800000000000000000000000000000D0
:10D3AC007BC031801B000E000E000E001B00318074
:10D3BC007BC0000000000000000000000000000026
:10D3CC0079E030C019800F00060006000600060048
:10D3DC001F800000000000000000000000000000A2
:10D3EC003F8021802300060004000C001880308050
:10D3FC003F800000000000000000000000000780DB
:10D40C0006000600060006000600060006000600E0
:10D41C00060006000780000000000000300030000D
:10D42C00180018000C000C0006000300030001801B
:10D43C00018000C000C000000000000000001E00C1
:10D44C0006000600060006000600060006000600A0
:10D45C00060006001E0000000000000004000A0088
:10D46C000A00110020802080000000000000000055
:10D47C0000000000000000000000000000000000A0
:10D48C000000000000000000000000000000000090
:10D49C0000000000000000000000FFE00800040095
:10D4AC00020000000000000000000000000000006E
:10D4BC000000000000000000000000000000000060
:10D4CC00000000001F00018001801F80318033802C
:10D4DC001DC00000000000000000000000007000F3
:10D4EC00300030003700398030C030C030C0398057
:10D4FC0077000000000000000000000000000000A9
:10D50C00000000001E8031806080600060803180EF
:10D51C001F0000000000000000000000000003805D
:10D52C00018001801D803380618061806180338047
:10D53C001DC0000000000000000000000000000002
:10D54C00000000001F00318060C07FC0600030C050
:10D55C001F8000000000000000000000000007E039
:10D56C000C000C003F800C000C000C000C000C009C
:10D57C003F800000000000000000000000000000E0
:10D58C00000000001DC033806180618061803380A9
:10D59C001D80018001801F00000000000000700051
:10D5AC00300030003700398031803180318031805B
:10D5BC007BC000000000000000000000000006001E
:10D5CC00060000001E00060006000600060006000D
:10D5DC003FC000000000000000000000000006003A
:10D5EC00060000003F0003000300030003000300DB
:10D5FC000300030003003E00000000000000700068
:10D60C0030003000378036003C003C0036003300E0
:10D61C0077C00000000000000000000000001E00A9
:10D62C0006000600060006000600060006000600BE
:10D63C003FC00000000000000000000000000000DF
:10D64C00000000007F8036C036C036C036C036C001
:10D65C0076E0000000000000000000000000000068
:10D66C0000000000770039803180318031803180BA
:10D67C007BC0000000000000000000000000000063
:10D68C00000000001F00318060C060C060C03180AD
:10D69C001F0000000000000000000000000000005F
:10D6AC00000000007700398030C030C030C03980B5
:10D6BC003700300030007C0000000000000000004B
:10D6CC00000000001DC03380618061806180338068
:10D6DC001D800180018007C00000000000000000D8
:10D6EC00000000007B801CC01800180018001800F7
:10D6FC007F0000000000000000000000000000009F
:10D70C00000000001F8031803C001F00038031802E
:10D71C003F000000000000000000000000001800A6
:10D72C00180018007F001800180018001800188046
:10D73C000F000000000000000000000000000000CE
:10D74C000000000073803180318031803180338063
:10D75C001DC00000000000000000000000000000E0
:10D76C00000000007BC0318031801B001B000E00CC
:10D77C000E0000000000000000000000000000008F
:10D78C0000000000F1E060C064C06EC03B803B80D4
:10D79C0031800000000000000000000000000000CC
:10D7AC00000000007BC01B000E000E000E001B00D2
:10D7BC007BC0000000000000000000000000000022
:10D7CC000000000079E030C0198019800B000F00B8
:10D7DC00060006000C003E000000000000000000E7
:10D7EC00000000003F80218003000E0018003080F4
:10D7FC003F80000000000000000000000000060058
:10D80C000C000C000C000C000C0018000C000C00A0
:10D81C000C000C00060000000000000000000600D8
:10D82C0006000600060006000600060006000600BC
:10D83C0006000600060000000000000000000C00BE
:10D84C00060006000600060006000300060006009F
:10D85C00060006000C0000000000000000000000A4
:10D86C0000000000000018002480030000000000ED
:10D87C00000000000000000000000000000000009C
:10D88C00000000000000000000000000000000008C
:10D89C00000000000000000000000000000000007C
:10D8AC00000000000000000000000000000000006C
:10DE9C0000000000000000000000000000C0012095
:10DEAC00012000C000000000000000000000000085
:10DEBC000000000000000000000000000000000056
:10DECC000000000000000000000000000000000046
:10DEDC000000000000000000000000000000000036
:10DEEC000000000000000000000000000000000026
:10E0EC00000000000000000000000380000380001E
:10E0FC000380000380000380000380000380000382
:10E10C0080000380000100000100000000000000FE
:10E11C0000038000038000000000000000000000ED
:10E12C0000000000000000000000000000000000E3
:10E13C0000000000000E70000E70000E7000042035
:10E14C000004200004200004200000000000000057
:10E15C0000000000000000000000000000000000B3
:10E16C0000000000000000000000000000000000A3
:10E17C0000000000000000000000066000066000C7
:10E18C000660000660000660003FF8003FF80006DD
:10E19C0060000CC0003FF8003FF8000CC0000CC041
:10E1AC00000CC0000CC0000CC000000000000000FF
:10E1BC000000000000000000000000000000000152
:10E1CC00800001800007B0000FF00018700018707C
:10E1DC00001C00000F800007E00000F00018300069
:10E1EC001C30001C70001FE0001BC00001800001EF
:10E1FC008000018000018000000000000000000091
:10E20C00000000000000000000000780000FC000AC
:10E21C001CE0001860001860001CE0000FF80007FC
:10E22C00E0001FF000073800061800061800073839
:10E23C000003F00001E000000000000000000000FE
:10E24C0000000000000000000000000000000000C2
:10E25C00000000000000000003F00007F0000C605C
:10E26C00000C00000C00000600000700000F9C00D2
:10E27C001DFC0018F0001870000FFC0007DC0000FB
:10E28C000000000000000000000000000000000082
:10E29C0000000000000000000000000000038000EF
:10E2AC000380000380000100000100000100000158
:10E2BC000000000000000000000000000000000052
:10E2CC000000000000000000000000000000000042
:10E2DC000000000000000000000000000000000032
:10E2EC00000000180000380000700000F00000E092
:10E2FC000000E00001C00001C00001C00001C0002E
:10E30C0001C00001C00000E00000E000007000004F
:10E31C007000003800001800000000000000000031
:10E32C00000000000000000000001800001C0000AD
:10E33C000E00000E00000700000700000380000321
:10E34C00800003800003800003800003800007002E
:10E35C00000700000F00000E00001C000018000059
:10E36C0000000000000000000000000000000000A1
:10E37C0000000180000180000180001DB8001FF822
:10E38C000007E00003C00003C00006600006600048
:10E39C000000000000000000000000000000000071
:10E3AC000000000000000000000000000000000061
:10E3BC000000000000000000000000000000000051
:10E3CC000180000180000180000180000180003F7D
:10E3DC00FC003FFC000180000180000180000180F6
:10E3EC0000018000000000000000000000000000A0
:10E3FC000000000000000000000000000000000011
:10E40C000000000000000000000000000000000000
:10E41C0000000000000000000000000000000000F0
:10E42C0000000000000000E00000C00001C000017E
:10E43C0080000180000300000300000000000000C9
:10E44C0000000000000000000000000000000000C0
:10E45C000000000000000000000000000000001F91
:10E46C00F8001FF800000000000000000000000091
:10E47C000000000000000000000000000000000090
:10E48C000000000000000000000000000000000080
:10E49C000000000000000000000000000000000070
:10E4AC000000000000000000000000000000000060
:10E4BC0000000000000003C00003C00003C0000007
:10E4CC000000000000000000000000000000000040
:10E4DC000000000000180000180000380000300098
:10E4EC0000700000600000600000C00000C000016F
:10E4FC0080000180000300000300000600000600FD
:10E50C00000E00000C00001C000018000018000099
:10E51C0000000000000000000000000000000000EF
:10E52C00000003C00007E0000C30000C300018188D
:10E53C0000181800181800181800181800181800DF
:10E54C001818000C30000C300007E00003C000006D
:10E55C0000000000000000000000000000000000AF
:10E56C000000000000000000000000800007800098
:10E57C001F80001D800001800001800001800001CF
:10E58C00800001800001800001800001800001807A
:10E59C00001FF8001FF80000000000000000000041
:10E5AC00000000000000000000000000000000005F
:10E5BC00000007C0001FF000383000301800301881
:10E5CC000000180000300000600001C00003800053
:10E5DC000600000C00001800003FF8003FF8000097
:10E5EC00000000000000000000000000000000001F
:10E5FC000000000000000000000003C0000FE0005D
:10E60C000C700000300000300000600003C00003FC
:10E61C00E000007000001800001800001800183806
:10E62C00001FF0000FC00000000000000000000000
:10E63C0000000000000000000000000000000000CE
:10E64C00000000E00001E00001E000036000066053
:10E65C00000660000C60000C600018600030600068
:10E66C003FF8003FF80000600003F80003F80000DA
:10E67C00000000000000000000000000000000008E
:10E68C00000000000000000000001FF0001FF00060
:10E69C001800001800001800001BC0001FF0001C20
:10E6AC00300000180000180000180000180030306E
:10E6BC00003FF0000FC00000000000000000000050
:10E6CC00000000000000000000000000000000003E
:10E6DC00000000F80003F8000700000E00000C001A
:10E6EC00001800001BC0001FF0001C3000181800A0
:10E6FC001818001818000C38000FF00003E0000088
:10E70C0000000000000000000000000000000000FD
:10E71C00000000000000000000001FF8001FF800BF
:10E72C00181800183800003000003000007000008D
:10E73C00600000600000E00000C00000C00001C0EC
:10E74C0000018000018000000000000000000000BB
:10E75C0000000000000000000000000000000000AD
:10E76C00000007E0000FF0001C3800181800181803
:10E77C00000C300007E00007E0000C300018180017
:10E78C001818001818001C38000FF00007E00000E3
:10E79C00000000000000000000000000000000006D
:10E7AC000000000000000000000007C0000FF00097
:10E7BC001C30001818001818001818000C38000F1E
:10E7CC00F80003D80000180000300000700000E0D2
:10E7DC00001FC0001F00000000000000000000002F
:10E7EC00000000000000000000000000000000001D
:10E7FC00000000000000000000000000000003C04A
:10E80C000003C00003C00000000000000000000076
:10E81C0000000000000003C00003C00003C00000A3
:10E82C0000000000000000000000000000000000DC
:10E83C0000000000000000000000000000000000CC
:10E84C0000000000000000F00000F00000F00000EC
:10E85C00000000000000000000000000E00001C00B
:10E86C000001800001800003000002000000000095
:10E87C00000000000000000000000000000000008C
:10E88C000000000000000000001C00003C0000F034
:10E89C000003C0000F00003C0000F000003C000032
:10E8AC000F000003C00000F000003C00001C000042
:10E8BC00000000000000000000000000000000004C
:10E8CC00000000000000000000000000000000003C
:10E8DC000000000000000000007FFC007FFC000036
:10E8EC0000000000007FFC007FFC00000000000026
:10E8FC00000000000000000000000000000000000C
:10E90C0000000000000000000000000000000000FB
:10E91C0000000000000000007000007800001E00E5
:10E92C000007800001E000007800001E0000780065
:10E93C0001E0000780001E0000780000700000005D
:10E94C0000000000000000000000000000000000BB
:10E95C000000000000000000000000000007C000E4
:10E96C000FE0001870001830001830000070000024
:10E97C00E00003C000038000030000000000000062
:10E98C00000700000700000000000000000000006D
:10E99C00000000000000000000000000000000006B
:10E9AC00000003E00007F0000E38000C1800187887
:10E9BC000018F80019D80019980019980019980037
:10E9CC0018F8001878001800000C00000E1800074A
:10E9DC00F80003E000000000000000000000000050
:10E9EC00000000000000000000000000001F80007C
:10E9FC001FC00001C0000360000360000630000669
:10EA0C0030000C30000FF8001FF800180C00300C10
:10EA1C0000FC7F00FC7F00000000000000000000F4
:10EA2C0000000000000000000000000000000000DA
:10EA3C0000000000007FE0007FF00018380018187C
:10EA4C00001818001838001FF0001FF800181C00E0
:10EA5C00180C00180C00180C007FF8007FF0000058
:10EA6C00000000000000000000000000000000009A
:10EA7C000000000000000000000000000003EC009B
:10EA8C000FFC001C1C00180C00300C003000003077
:10EA9C000000300000300000300000180C001C1C7E
:10EAAC00000FF80003F00000000000000000000060
:10EABC00000000000000000000000000000000004A
:10EACC0000000000007FC0007FF00018380018180C
:10EADC0000180C00180C00180C00180C00180C0076
:10EAEC00180C001818001838007FF0007FE00000A8
:10EAFC00000000000000000000000000000000000A
:10EB0C00000000000000000000000000007FF80082
:10EB1C007FF8001818001818001998001980001FA9
:10EB2C0080001F8000198000199800181800181810
:10EB3C00007FF8007FF800000000000000000000DB
:10EB4C0000000000000000000000000000000000B9
:10EB5C0000000000003FFC003FFC000C0C000C0C03
:10EB6C00000CCC000CC0000FC0000FC0000CC0008B
:10EB7C000CC0000C00000C00003FC0003FC00000A7
:10EB8C000000000000000000000000000000000079
:10EB9C000000000000000000000000000003EC007A
:10EBAC000FFC001C1C00180C00300C003000003056
:10EBBC00000030FE0030FE00300C00380C001C1C35
:10EBCC00000FFC0003F0000000000000000000003B
:10EBDC000000000000000000000000000000000029
:10EBEC0000000000007E7E007E7E001818001818C1
:10EBFC00001818001818001FF8001FF8001818004B
:10EC0C001818001818001818007E7E007E7E000070
:10EC1C0000000000000000000000000000000000E8
:10EC2C00000000000000000000000000001FF800C1
:10EC3C001FF80001800001800001800001800001AC
:10EC4C0080000180000180000180000180000180B3
:10EC5C00001FF8001FF8000000000000000000007A
:10EC6C000000000000000000000000000000000098
:10EC7C00000000000007FE0007FE0000300000301E
:10EC8C000000300000300000300030300030300028
:10EC9C003030003030003060003FE0000F8000006A
:10ECAC000000000000000000000000000000000058
:10ECBC00000000000000000000000000007F3E008B
:10ECCC007F3E0018300018600018C0001980001B2F
:10ECDC0080001FC0001CE0001870001830001838AD
:10ECEC00007F1F007F1F00000000000000000000DC
:10ECFC000000000000000000000000000000000008
:10ED0C0000000000007F80007F80000C00000C00E1
:10ED1C00000C00000C00000C00000C00000C0C009F
:10ED2C000C0C000C0C000C0C007FFC007FFC000099
:10ED3C0000000000000000000000000000000000C7
:10ED4C0000000000000000000000000000F00F00B8
:10ED5C00F81F00381C003C3C003C3C00366C003674
:10ED6C006C0033CC0033CC00318C00300C00300CF8
:10ED7C0000FE7F00FE7F000000000000000000008D
:10ED8C000000000000000000000000000000000077
:10ED9C00000000000078FE0078FE001C18001E1811
:10EDAC00001F18001B18001B980019D80018D80059
:10EDBC0018F8001878001838007F18007F18000029
:10EDCC000000000000000000000000000000000037
:10EDDC000000000000000000000000000003C00064
:10EDEC000FF0001C3800181800381C00300C0030D4
:10EDFC000C00300C00300C00381C001818001C38AB
:10EE0C00000FF00003C00000000000000000000034
:10EE1C0000000000000000000000000000000000E6
:10EE2C0000000000003FF0003FF8000C1C000C0C30
:10EE3C00000C0C000C0C000C18000FF8000FE0007C
:10EE4C000C00000C00000C00003FC0003FC0000094
:10EE5C0000000000000000000000000000000000A6
:10EE6C000000000000000000000000000003C000D3
:10EE7C000FF0001C3800181800381C00300C003043
:10EE8C000C00300C00300C00381C001818001C381A
:10EE9C00000FF00007C00007CC000FFC000C38007E
:10EEAC000000000000000000000000000000000056
:10EEBC0000000000007FE0007FF0001838001818F8
:10EECC00001818001838001FF0001FC00018E000D0
:10EEDC001870001830001838007F1E007F0E0000DC
:10EEEC000000000000000000000000000000000016
:10EEFC000000000000000000000000000007D80027
:10EF0C000FF8001C38001818001818001E00000F0D
:10EF1C00C00003F0000078001818001818001C3806
:10EF2C00001FF0001BE000000000000000000000CB
:10EF3C0000000000000000000000000000000000C5
:10EF4C0000000000003FFC003FFC00318C00318CC5
:10EF5C0000318C00318C00018000018000018000A8
:10EF6C000180000180000180000FF0000FF0000014
:10EF7C000000000000000000000000000000000085
:10EF8C00000000000000000000000000007E7E0079
:10EF9C007E7E001818001818001818001818001891
:10EFAC0018001818001818001818001818000C3041
:10EFBC00000FF00003C00000000000000000000083
:10EFCC000000000000000000000000000000000035
:10EFDC0000000000007F7F007F7F00180C000C18E1
:10EFEC00000C18000C1800063000063000036000FE
:10EFFC0003600003600001C00001C000008000003D
:10F00C0000000000000000000000000000000000F4
:10F01C0000000000000000000000000000FE3F8027
:10F02C00FE3F8030060030060030860019CC0019F7
:10F03C00CC001B6C001B6C001E7C000E38000E38C4
:10F04C00000C18000C18000000000000000000006C
:10F05C0000000000000000000000000000000000A4
:10F06C0000000000007E7E007E7E001818000C3030
:10F07C000006600003C00001800001800003C00096
:10F08C000660000C30001818007E7E007E7E0000AA
:10F09C000000000000000000000000000000000064
:10F0AC00000000000000000000000000007C7E005A
:10F0BC007C7E001818000C3000066000066000030F
:10F0CC00C0000180000180000180000180000180EF
:10F0DC00000FF0000FF00000000000000000000026
:10F0EC000000000000000000000000000000000014
:10F0FC0000000000001FF8001FF80018180018305E
:10F10C000018600018C00001800003000006180001
:10F11C000C18001818003018003FF8003FF80000D9
:10F12C0000000000000000000000000000000000D3
:10F13C000000000000000000000001F00001F000E1
:10F14C00018000018000018000018000018000012D
:10F15C00800001800001800001800001800001809E
:10F16C000001800001800001800001F00001F0002E
:10F17C000000000000000000000000001800001853
:10F18C0000001C00000C00000E0000060000060031
:10F19C000003000003000001800001800000C0009B
:10F1AC0000C0000060000060000070000030000033
:10F1BC0038000018000018000000000000000000DB
:10F1CC00000000000000000000000F80000F800015
:10F1DC00018000018000018000018000018000019D
:10F1EC00800001800001800001800001800001800E
:10F1FC00000180000180000180000F80000F800062
:10F20C0000000000000000000000000000000000F2
:10F21C00800001C00003E0000770000630000C18ED
:10F22C0000180C001004000000000000000000009A
:10F23C0000000000000000000000000000000000C2
:10F24C0000000000000000000000000000000000B2
:10F25C0000000000000000000000000000000000A2
:10F26C000000000000000000000000000000000092
:10F27C000000000000000000000000000000000082
:10F28C000000000000000000000000000000000072
