:020000021000EC
:1090000000600020A59301005D9301005F930100C3
:10901000619301006393010065930100000000006B
:109020000000000000000000000000006793010045
:1090300069930100000000006B9301006D93010033
:10904000ADB101006F93010081B301006F93010086
:10905000D1B301000000000035B201006F930100A0
:109060006F9301006F9301006F9301006F930100F4
:109070006F9301006F9301006F9301006F930100E4
:109080006F93010059A301006F9301006F930100DA
:109090006F9301006F93010075CB01006F93010086
:1090A0006F9301006F9301000000000000000000BA
:1090B0006F9301006F9301000000000000000000AA
:1090C00000000000000000000000000000000000A0
:1090D0000000000000000000000000000000000090
:1090E0000000000000000000000000000000000080
:1090F0000000000000000000000000000000000070
:10910000000000000000000000000000000000005F
:10911000000000000000000000000000000000004F
:10912000000000000000000000000000000000003F
:10913000000000000000000000000000000000002F
:10914000000000000000000000000000000000001F
:10915000000000000000000000000000000000000F
:1091600000000000000000000000000000000000FF
:1091700000000000000000000000000000000000EF
:1091800000000000000000000000000000000000DF
:1091900000000000000000000000000000000000CF
:1091A00000000000000000000000000000000000BF
:1091B00000000000000000000000000000000000AF
:1091C000000000000000000000000000000000009F
:1091D000000000000000000000000000000000008F
:1091E000000000000000000000000000000000007F
:1091F000000000000000000000000000000000006F
:10920000354936480A1A02D0072291438D4634491F
:1092100034480A1A06D00722914381F309880222B2
:1092200082F3148830483149314A00F044F831481B
:109230003149324A00F03FF831483249324A00F0B1
:109240003AF832483249334A00F035F83248334967
:10925000334A00F030F833483349344A00F02BF8F1
:1092600033483449344A00F026F83448344900225F
:1092700000F02CF833483449002200F027F8334836
:109280003349091A082902DB002202604160314A91
:1092900090471F481F49884205D00268043003B434
:1092A000904703BCF7E700208646EC4600200021EB
:1092B000294A9047FEE7884207D0521A05D0037822
:1092C00001300B700131013AF9D17047884202D068
:1092D00002700130FAE7704700600020005800205B
:1092E000006000200060002024360200E01A002008
:1092F000301B0020EC930100EC930100F8DC01002E
:1093000024360200E01A0020E01A0020FCDD0100F3
:10931000FCDD0100FCDD0100FCDD0100FCDD0100E5
:10932000FCDD0100FCDD0100FCDD01002236020055
:1093300074360200301B0020301B0020301B002040
:109340009036002090360020903600209036002085
:10935000903E0020BB930100F5B80100FEE7FEE758
:10936000FEE7FEE7FEE7FEE7FEE7FEE7FEE7FEE7D5
:1093700009480068094909680A280AD1002908D162
:10938000074802686FF070031A404FF040031A4319
:10939000026000F009B80000300100103401001034
:1093A000E40E0040FFF7E4BF0B484FF0070188438D
:1093B00085460A488047FFF723BF094809490A4AFA
:1093C000884207D0521A05D0037801300B70013162
:1093D000013AF9D1704700000060002029AD01007A
:0C93E000FCDD0100E01A0020E01A002073
:1093EC007047000007B5044B0093044A402300F07B
:1093FC0032F803B05DF804FB0D940100311B002022
:10940C002DE9F84388461446B2B10F4B0F4E032595
:10941C00002743F00109224608EB0701002002F067
:10942C00B3FB0744241A48B933782BB14FF47A4074
:10943C00C847013D02D13570BDE8F8830123337074
:10944C00002CE8D1F8E700BF00DE0100301B002043
:10945C00704702F0C9BBF0B595B01D4616460846DC
:10946C000C4601F021FB1A9B0D93CDE908650025F4
:10947C002B46082205A920460A958DF82C500C95F0
:10948C0001F02EFB079B0293069B03939DF814306F
:10949C008DF8115003F00302012A1DD1BDF81420E0
:1094AC00059DC3F3C203C2F383168DF81030B200CE
:1094BC0008230EA9204601F013FBC5F3952508AB34
:1094CC000093324602AB0EA9284600F033FB20462F
:1094DC0001F0EEFA15B0F0BD022AF8D1BDF8165025
:1094EC00C3F3C203C5F389158DF810300827082D76
:1094FC002E4628BF08263B4632460EA9204601F0D0
:10950C00EFFAAD1B08AB02AA31460EA8374400F0A7
:10951C0075FB002DEBD1DAE708B5FFF79AFF04488D
:10952C00042100F077FA034B01225A7108BD00BFE9
:10953C00ECDD0100E01A00200378024613F0040071
:10954C0006D003F00300012803D0022809D0012023
:10955C0070470B6812880233C2F3831213440B60FA
:10956C0070470B685288023303EB92130B60EEE7E3
:10957C002DE9F04FDFF81CA187B00F4600230446FD
:10958C00861C0DF1070015468DF8073000F072FDB2
:10959C00DAF804203A60DAF8083003F580739B1A85
:1095AC000AF21C470AF583690AF21448B3421AD32B
:1095BC000020002D69D004F00F039B0143F005033C
:1095CC0063F30F00DAF80430DAB2033233444AF8AA
:1095DC0022009DF80700CAF8043000F06FFD01204E
:1095EC0007B0BDE8F08F0121384600F08CFF4846EB
:1095FC0000F0A1FF404600F09EFFDAF80800029050
:10960C00C0B203300AEB800002A9FFF795FF029B62
:10961C0030BBDAB20AEB8202D16803919A1C013397
:10962C00DBB20AEB83030292D3F80CB001F0030314
:10963C00012B22D0022B15D08346404600F07EFF32
:10964C0010B1029BCAF808305946384600F05BFF4F
:10965C00DAF80830DAF8042003F580739B1AA5E7D2
:10966C00D8B2CEE7BDF80E30C3F3891303334FEAFB
:10967C001B4B02EB93030293DFE7BDF80C30C3F3F3
:10968C0083134FEA1B4B1344F5E7A40544F0060083
:10969C0098E700BF441C0020064B074810B5002279
:1096AC001A7001F0BAF9044610B9044801F030FA06
:1096BC00204610BD441C002050DD01003CDE0100A2
:1096CC0030B50A4C71B10A4A0A49121BD208002360
:1096DC009A4201D1002030BD31F82350854202D08E
:1096EC000133F5E7034654F83300F4E764DD010079
:1096FC00ECDD0100E01A0020094B013903EBC0003E
:10970C00032909D8DFE801F00A0204060420704797
:10971C0000797047407970470020704702207047ED
:10972C0064DD0100034BD3E90130C31A58425841A0
:10973C00704700BF441C00202DE9F04186B0FFF7B4
:10974C00F1FF0546002840F0ED80774CC4F8180472
:10975C00BFF34F8FA3680293DBB2033304EB830098
:10976C0002A9FFF7E9FE029B18B1D4F81824002ACD
:10977C005AD0DAB2991C013304EB8202DBB204EB4F
:10978C008303D268DB68049302F00303022B039279
:10979C00029154D1BDF80E306448C3F38917502F91
:1097AC003E4628BF502606F1080166F38F13C1F31D
:1097BC000901ADF80E3001F048F90546002800F01B
:1097CC009C8001F071F90023082203A9284601F0BE
:1097DC007DF90299CB43DBB20133C9B20331B6EB4D
:1097EC00830F4FEA830204EB810125D95FFA82F8DB
:1097FC000823A6EB0806284601F068F9F6B208F132
:10980C0008034B4903F0FC033246284601F05EF98D
:10981C00029B033703EB97070297D4F81834002BFD
:10982C0043D1D4F8106453E062689A4294D8A26091
:10983C00284606B0BDE8F08108233246E5E7012B47
:10984C005BD1BDF80C303948C3F38311062928BF0E
:10985C00062161F38913023101F00F018900ADF883
:10986C000C3001F0F2F80546002846D001F01CF946
:10987C000023082203A9284601F028F90026BDF888
:10988C000C20C2F38312B300964203F10803C4D236
:10989C0002994A1CC9B20331029204EB81010422E1
:1098AC00284601F013F90136E9E7284601F000F9E2
:1098BC00FFF738FF80F00105EDB2B9E7F3685B798B
:1098CC0023B1336829461B6830469847F3681E68F5
:1098DC00002EF3D1284601F0EBF80DF107008DF8BE
:1098EC00076000F0C7FBD4F818340BB9029BA360D7
:1098FC009DF8070000F0E2FBDAE7D4F8104454B905
:10990C000C4B0D480D49C01AC008000440F0020071
:10991C0000F05CF8CCE7236820469B689847E36826
:10992C001C68ECE7002583E7441C002050DD010097
:10993C00501C002064DD010094DD010024DE0100D8
:10994C002DE9F34704460E46924601A9012218461A
:10995C009946FFF70DFE1B4F10B3019D4FF0000809
:10996C00AA1CC84508EB020123D11748002100F0BE
:10997C009BFD80F31000000440EA1440E4006B1CD3
:10998C0004F03804DBB2EDB244F0010407EB8303BE
:10999C00033544EA881444EA8624D86047F8254005
:1099AC003B781BB1FFF7C8FE0028FBD102B0BDE825
:1099BC00F087C9B207EB81015AF82830CB6008F167
:1099CC000108CEE7441C00206020002000231A462A
:1099DC00FFF7B6BF07B50123019201AAFFF7B0FF4D
:1099EC0003B05DF804FB07B5CDE9002302236A46FA
:1099FC00FFF7A6FF03B05DF804FB1FB5CDE901230B
:109A0C00069B039301AA0323FFF79AFF05B05DF8A9
:109A1C0004FB000030B50F4CD4F810240346002092
:109A2C00114631B9D96808714AB9C4F810340A60C2
:109A3C0030BDC9680D79854206D00968F1E7D26856
:109A4C0014680C601360F3E701300A28E8D14FF07A
:109A5C00FF30EDE7441C002038B5084B0125D3F846
:109A6C0010441D7004B938BDE3685D71236820464D
:109A7C005B689847E3681C68F4E700BF441C00204F
:109A8C00C38873B504460D4633B1144A0092144989
:109A9C00144A284600F0B5FD217A05291CD0637ABA
:109AAC004BB1A088FFF728FE0F4B104953F820202C
:109ABC00284600F0A6FD227A0D4BA08853F82260B0
:109ACC000021FFF7FDFD0B4903463246284602B044
:109ADC00BDE8704000F095BD02B070BD68DE0100BD
:109AEC0050DE010048DE0100D4DE01006DDE010015
:109AFC00F8DE010070DE010010B5037A052B0C4670
:109B0C000FD0437A23B1084A0849204600F079FD6A
:109B1C000749204600F075FD2046BDE8104000F0D6
:109B2C0065BD002AF8D0F3E768DE01006DDE0100A8
:109B3C00C43302002DE9F04385B01F460C9D002371
:109B4C0095F80C902B7306460C46904629463846E1
:109B5C00FFF796FFB8F1060F09D8DFE808F00412FA
:109B6C00181F283340003146284600F04AFD0022D9
:109B7C0029463846FFF7C0FF85F80C9005B0BDE8C4
:109B8C00F08322683146284600F03BFDEFE7D4E92C
:109B9C0000233146284600F034FDE8E7A368009323
:109BAC003146D4E90023284600F02BFDDFE7E368BB
:109BBC000193A36800933146D4E90023284600F0B2
:109BCC0020FDD4E723690293E3680193A368009313
:109BDC003146D4E90023284600F013FDC7E763693A
:109BEC00039323690293E3680193A36800933146BE
:109BFC00D4E90023284600F004FDB8E708292DE934
:109C0C00F74F80460E4617461C463DD800251B7B59
:109C1C002573214610460193FFF732FFDFF888A029
:109C2C00DFF888B0AE4232D918F8052059462046E4
:109C3C0000F0E7FC0135082DF4D11D49DFF874A0C4
:109C4C00DFF874B0204600F0DCFC4FF000094E4504
:109C5C0024D918F809507E2D1ED8284603F0E2FEB0
:109C6C00002814BF2A462E225946204600F0C9FC73
:109C7C0009F10109B9F1080FE9D101222146384651
:109C8C00FFF73AFF019B237303B0BDE8F08F5146F9
:109C9C00204600F0B6FCCDE72E22E5E751462046E3
:109CAC0000F0AFFCE4E700BF80DE01007ADE0100CB
:109CBC0084DE010082DE010086DE01001FB500217A
:109CCC00039001AA44F20100CDE9011100F004F85F
:109CDC0005B05DF804FB000038B572B6FFF7BCFEAA
:109CEC00FFF72AFD0028FBD1104B114C114D1249E6
:109CFC00E41AE408240444F00100FFF767FED5F8E9
:109D0C00F030DB0700D500BE0C4944F00200FFF731
:109D1C005DFEBFF34F8FEA68094B02F4E062134318
:109D2C00EB60BFF34F8F00BFFDE700BF64DD0100A8
:109D3C0094DD010000ED00E017DF010023DF0100DE
:109D4C000400FA0510B5D0E90243D1E90202A042A1
:109D5C0072EB03032CBF0120002010BD08B50A488C
:109D6C0000F0DDFA094AD2E90031C018084BD3E9FA
:109D7C00002341F10001904271EB030303D210F177
:109D8C00807041F1000108BDE81A0020002100207C
:109D9C007821002037B505460C460A4801A900F089
:109DAC00F2FA60B10570446001A9064800F015FB99
:109DBC0018B1054800F0B8FA002003B030BD0420FB
:109DCC00FBE700BF64210020E81A002038B5184BCF
:109DDC001B78044613B90025284638BD0028FAD054
:109DEC00037F03F0FF05002BF5D0FFF7B7FFD4E995
:109DFC000223904271EB030314D3236903B9237735
:109E0C00D4E90530984721690029E4D0237F03F079
:109E1C00FF05002BDFD0D4E902325B1842F10002BF
:109E2C00C4E902320348214600F091FED4E700BF9A
:109E3C000821002040DF010013B5114B11491868AF
:109E4C00019008231048582200F08AFA044698B969
:109E5C000E4A0F4801A900F053F9044660B90C48AA
:109E6C00012100F03FFA01230A4A0948194600F083
:109E7C00A1F9094B01221A70204602B010BD00BF97
:109E8C003ADF01000C21002064210020F19E01002A
:109E9C00E81A0020FFFF7F000821002038B5037F5F
:109EAC0004460D4683B98261FFF758FF23692818D1
:109EBC0041F10001C4E9020103B1256121460020F2
:109ECC00BDE83840FFF766BF002038BD00230146CF
:109EDC0003770120FFF75EBF014800F020BA00BFF6
:109EEC00E81A00202DE9F347064600F003FA40B1CA
:109EFC00584AD2E9003113F1807341F10001C2E9F3
:109F0C0000310021304600F004FA38B1524C23687D
:109F1C0023B12068FFF75AFF00232360012130464C
:109F2C0000F0F7F920B1FFF719FF4C4BC3E9000122
:109F3C004B48494D4B4C4C4F01A900F05EFA0028A0
:109F4C0042D1DFF82081444CDFF82091404600F0EC
:109F5C0014FE2368002872D07BB12368D0E902522A
:109F6C00D3E902138D4272EB03032AD223681B7FC1
:109F7C001BB12168404600F0EAFD404600F0F7FDB9
:109F8C00D0E9027A0546FFF7E9FE3F1A6AEB010AAF
:109F9C00012F7AF1000345DBB7F5350F40D3FFF7FE
:109FAC009BFF334A02444FF496030021484600F0CD
:109FBC0021F900283ED1236813B9304600F0F2F89D
:109FCC00256002B0BDE8F0870378012B1DD0022B71
:109FDC0009D14FF00008204600F0C9FD002836D00A
:109FEC0080F81C80F7E73BB941680B7F23B901234C
:109FFC000B77204600F0ABFD01A9194800F028FAB8
:10A00C0001A9174800F0F9F999E741682B689942C2
:10A01C0002D100232B60EFE7204600F0B1FDEBE707
:10A02C00AA68C0E70021484600F069F92846FFF706
:10A03C00CDFE01E00D28F9D00023236086E7002B2C
:10A04C00BFD1304602B0BDE8F04700F0AFB80123F5
:10A05C003B70D1E7002100208021002078210020D6
:10A06C006421002040DF010008210020E81A0020B4
:10A07C00FFFFB40070B5EFF3108672B60C4A94680B
:10A08C0001239CB993600B4B0B4DD3F880102940E6
:10A09C001160C3F88050D3F8841051604FF0FF3238
:10A0AC00C3F88420047006B962B670BD0370FAE779
:10A0BC008421002000E100E0FC06FFBD084B9A68FB
:10A0CC0010B55AB150B9EFF3108172B6054A1C683D
:10A0DC0014605C685460986001B962B610BD00BF32
:10A0EC008421002000E100E00346405882B028B1F2
:10A0FC0000225A505B580193019B012002B070471B
:10A10C00F8B5204B4479204E43F824201F4A204BAD
:10A11C0006EBC4049B1A2279DB081B0432B143F012
:10A12C0002001C49FFF752FC0820F8BD02680C889D
:10A13C00C2F8084590F904508A7804795201002D30
:10A14C00D2B219DB14494F1987F8002301226D098B
:10A15C0004F01F0402FA04F441F82540427906EB9E
:10A16C00C201012446F832000C7143F003000B4984
:10A17C00FFF72CFC0020D8E7094904F00F040A551E
:10A18C00ECE700BF982100209021002064DD010045
:10A19C00A4DD01004CDF010000E100E06EDF0100F6
:10A1AC0014ED00E0036801221A6070470368012275
:10A1BC005A60704773B501F15005AD000068ADB23F
:10A1CC004FF480348C400026C0F80843C0F8484354
:10A1DC00465101F5A8714559019522F07F42019D28
:10A1EC0040F82120C0F844430BB1C0F8044302B03E
:10A1FC0070BD00002DE9F74F0D4622F07F44026838
:10A20C004FF4803705F150068F408046B60002EBC4
:10A21C008500C2F84873B6B2C2F80873D2F80415B8
:10A22C0099464FF0000BD0F84035C0F8401542F875
:10A23C0006B05B1A9259009223F07F43012B009ACF
:10A24C004FEA850A0CD1264B4FF4806043F0010392
:10A25C009847D8F8003043F806B09B590193019BFE
:10A26C00D8F80010D1F80465C1F84473A31B23F08F
:10A27C007F43012B1CD11A4B05F5A875013443F013
:10A28C00010341F825404FF480609847D8F800301E
:10A29C00D3F804359E4209D1D8F800300020C3F819
:10A2AC004473C3F8047303B0BDE8F08F0D20FAE7D4
:10A2BC008A44C9F1FF13CAF84045D1F80405221AA3
:10A2CC00013A22F07F4203F57F439342EED3002AFA
:10A2DC00E2D10134CAF84045D1F804359842DAE7A6
:10A2EC0080DF010003680222C3F8442309B1C3F8DC
:10A2FC000423704700684FF48271FFF7F5BE4FF4EA
:10A30C00803303FA01F10368C3F84813C3F8081348
:10A31C00704750318900006889B2FFF7E5BE0368C9
:10A32C00D3F804057047000090F90430002B09DBCA
:10A33C005A09012103F01F0301FA03F340320249C9
:10A34C0041F82230704700BF00E100E0024B034AA5
:10A35C001B681068184700BF98210020902100202E
:10A36C0030B5054659B1B2FBF3F403FB1424A0B28B
:10A37C0038B9C5E90010A860AA81EB8130BD0E2068
:10A38C00FCE70920FAE737B550E8013F9DB2C489D4
:10A39C0025448489A54228BF2D1B0489A54202BFF0
:10A3AC00BFF32F8F002207E0C5EA030540E80154F4
:10A3BC00002CE9D14FF001028DF803200193019A92
:10A3CC000A609DF8031001F0FF0321B1006810FA38
:10A3DC0082F003B030BD1846FBE70A884B889A42DE
:10A3EC0009D150E8012FC2EA024240E80123002BB8
:10A3FC00F7D1012070470020704737B550E8023F75
:10A40C001FFAA3F5C488A54202BFBFF32F8F002209
:10A41C000DE0C48925448489A54228BF2D1BC3EABD
:10A42C00054540E80254002CE8D14FF001028DF8AC
:10A43C0003200193019A0A609DF8031001F0FF03B9
:10A44C0021B1006800EB124003B030BD1846FBE7A9
:10A45C000A884B889A4209D150E8022FC2EA22425C
:10A46C0040E80223002BF7D10120704700207047F1
:10A47C0001F01F024B090121914000EB830000F019
:10A48C001EB801F01F0301229A404B0900EB830018
:10A49C00D14300F02CB84B0901F01F0150F82300F8
:10A4AC00C84000F00100704710B5034653E8000F98
:10A4BC000A4643E8002494F0000FF7D110BD10B504
:10A4CC00034653E8002F42EA010043E8000494F0ED
:10A4DC00000FF6D110BD10B5034653E8000F00EA8B
:10A4EC00010243E8002494F0000FF6D110BD10B522
:10A4FC00034653E8002F02EA010043E8000494F0FD
:10A50C00000FF6D110BD10B5034653E8002F02EB37
:10A51C00010043E8000494F0000FF6D110BD10B513
:10A52C00034653E8002FA2EB010043E8000494F02B
:10A53C00000FF6D110BD0121FFF7C1BF0021FFF7BD
:10A54C00CABF10B590B1D0E9012301689B1ADBB2E8
:10A55C000A60013BDBB2FF2B026802D100201071B4
:10A56C0010BD11684C1C14600B70F2E70E20F7E75D
:10A57C0037B5054600240DF107008DF80740FFF7AD
:10A58C0079FD2A686B68116899420ED9481E1060D3
:10A59C0011F8013CEC68298A01FB0344AB68117982
:10A5AC001B1ADBB2994238BF13719DF80700FFF7F5
:10A5BC0085FD204603B030BD37B5054600230DF1AF
:10A5CC0007000C468DF80730FFF754FD2A68136816
:10A5DC00591C1160E968641A298AB4FBF1F41C70E7
:10A5EC009DF80700FFF76AFD03B030BD826810B517
:10A5FC0004462AB143690168006998470023A360A7
:10A60C0010BD0EB403B5039921B104AB01AA01939B
:10A61C0000F076F802B05DF804EB03B070470A293D
:10A62C0038B504460D4602D10D21FFF7F8FFA3689B
:10A63C002268591CA160D554D4E901329A4204D342
:10A64C002046BDE83840FFF7D1BF38BD2DE9F84FA3
:10A65C009846DDE90A43154682460F460A464FF0F6
:10A66C000109AA420FD2C14538BFC14613F0010BF4
:10A67C0001D16CB900240126B8F1010F1BD908F1E6
:10A68C00FF386E43F8E709F10109B2FBF5F2E8E790
:10A69C009B070ED5B8F1000F0CBF30262026A14524
:10A6AC00E9D2013C31465046FFF7B9FF002CF6D1F8
:10A6BC00E0E72026F3E7B7FBF6F39D42E1D9DFF89C
:10A6CC003C80B7FBF6F3504618F8031006FB1377E3
:10A6DC00FFF7A5FF3346AB42B6FBF5F6F1D2BBF163
:10A6EC00000F02D00CB1A14501D3BDE8F88F202199
:10A6FC005046013CFFF793FFF4E700BF86DF0100F3
:10A70C002DE9F74F054617468846002900F03E8193
:10A71C0018F8011B49B92B7B002B00F03781284618
:10A72C0003B0BDE8F04FFFF761BF252940F0B780BB
:10A73C00002698F800302D2B424608F1010823D052
:10A74C00302B24D02B2B25D000242A2B02F10101F5
:10A75C0023D13B681A1D1B683A601C440A461378C7
:10A76C002E2B26D101324FF0000A104610F8011B97
:10A77C00A1F1300CBCF1090F1DD80A2303FB0A13FD
:10A78C00A3F1300A0246F0E746F00106D1E746F0A5
:10A79C000206CEE746F00406CBE711F8013CA3F124
:10A7AC0030000928DBD80A2202FB0434303C0A466C
:10A7BC00CBE74FF0000A12F8011B01F0FB006828F0
:10A7CC009046F8D0782909D86F290CD8632962D023
:10A7DC0022D8252963D0582900F0888098F80030B9
:10A7EC00002B95D197E770390829F7D801A353F8B6
:10A7FC0021F000BF73A90100E9A70100E9A701003E
:10A80C0009A90100E9A70100E7A80100E9A70100D7
:10A81C00E9A70100F9A80100642901D06929DDD15B
:10A82C003A68D2F80090111D89EAE9723960A2EBFE
:10A83C00E9724FF0010B092A35DCD34538BFD346FA
:10A84C002CB1B9F1000F01DB720700D5013CB30745
:10A85C0002D5BAF1000F03D0F00701D44CBB002491
:10A86C00B9F1000F2DDAC9F100092D212846FFF7A7
:10A87C00D6FE06F00302022A04D1BAF1000F01D170
:10A88C001CBB0024CDE9004653460A224946284603
:10A89C00FFF7DCFEA2E73B681A1D19783A602846E0
:10A8AC00FFF7BDFE9AE70A230BF1010BB2FBF3F2A3
:10A8BC00C1E7A345D4D220212846013CFFF7AFFEC7
:10A8CC00CCE77107D5D52B21D0E7A345DAD23021BF
:10A8DC002846013CFFF7A3FED2E73968CDE90046D4
:10A8EC000A1D3A6053460A220968D0E739680A1DE6
:10A8FC003A60CDE9004653461022F5E73B681A1D35
:10A90C003A6016F00106D3F8009024D1B9F1000F8B
:10A91C0003D0484603F0B8F90646B4421DD809F1F5
:10A92C00FF3919F8011F00293FF458AF2846FFF7EB
:10A93C0076FEF6E728460136FFF771FE19F8061089
:10A94C000029F7D1A642BFF449AF20212846013C8B
:10A95C00FFF765FEF6E70026F0E720212846013CCC
:10A96C00FFF75DFED9E73B681A1D3A603021284697
:10A97C001C68FFF754FE78212846FFF750FE002292
:10A98C000823CDE900322146102280E703B0BDE850
:10A99C00F08F00BF2DE9F84FB0F806A04579D2F83A
:10A9AC0000B09DF828900AFB05F5043D88460BEB9A
:10A9BC000301A94203F1040488BFA5EB030BB4FB0C
:10A9CC00FAF607460AFB1644C2F800B04EB9AAEBD9
:10A9DC0004055D4528BF5D46BBF1000F04D1BDE801
:10A9EC00F88F3F68013EF1E7043408EB06003C4465
:10A9FC002A46B9F1000F0DD02146ABEB050B03F045
:10AA0C00C5F8DA452E443F6855464FF0000428BF80
:10AA1C005D46E1E701462046EFE7FFF792BDF8B54A
:10AA2C0046790146721E0546002393422D6803D3D6
:10AA3C000024A64202D8F8BD0133F6E70F68284679
:10AA4C00FFF7BAFD01343946F3E72DE9F843068ADE
:10AA5C00CD1C0746FFF78CFD043E35440446B5FB80
:10AA6C00F6F5F0B14FF48073EDB28380C680013DF2
:10AA7C00076081464FF00008A84512D23846FFF710
:10AA8C0077FD064648B163790133637108F101081B
:10AA9C00C9F8000007608146EEE72046FFF7BFFFCC
:10AAAC0034462046BDE8F88301210430FFF72BBD66
:10AABC0010B5012104460430FFF731FDC0B220B9B6
:10AACC002046BDE81040FFF7AABF10BD1FB503928A
:10AADC000022009203AAFFF75DFF05B05DF804FBAE
:10AAEC001FB503920122009203AAFFF753FF05B092
:10AAFC005DF804FB41DF704708B502F01BF818B194
:10AB0C00BDE80840FFF7F6BF20BF40BF20BF08BD1F
:10AB1C00836800225A60C3E904229A60DA601A60E2
:10AB2C0070470B684A684360934208BF002301607A
:10AB3C0008BF43607047436843B10268916852682C
:10AB4C000B449342436004BF00234360704770B5CD
:10AB5C00446806460D46206818B1B36829469847E4
:10AB6C0018B923682B60256070BD2468F3E743682F
:10AB7C00186808B102681A60704743681868704713
:10AB8C004368186800B97047884203D102681A609C
:10AB9C000120704703460068F4E7000010B50D492A
:10ABAC00A1F59472914201D800200FE08C1AE30FAA
:10ABBC0003EBE4035B1002EBC30452F83330834223
:10ABCC0005D802D204F10802ECE7606810BD2146FA
:10ABDC00E8E700BFA0E4010008B5FFF7DFFF024B78
:10ABEC00002808BF184608BD62E301007FB5037852
:10ABFC008DF804304368029383688DF80C30C36879
:10AC0C0004930369064A8DF81430064B01A853F8D7
:10AC1C00213052F82110984707B05DF804FB00BFB3
:10AC2C009C210020A0210020F0B50546174615F800
:10AC3C0004CB124A42F82C70114A42F82C30114BBA
:10AC4C000C460FCB85B06E4686E80F002368009348
:10AC5C0023798DF8053063798DF80630A36802935B
:10AC6C00002FA389084AADF80C3008BF3A4663465A
:10AC7C003146284600F0D0FB05B0F0BDA0210020E5
:10AC8C009C210020A4E40100F9AB0100BFF34F8F1D
:10AC9C000549064BCA6802F4E0621343CB60BFF36C
:10ACAC004F8F00BFFDE700BF00ED00E00400FA0588
:10ACBC004FF08053D3F83001421C04BF4FF0704367
:10ACCC0093F8E00F831F5842584170474FF0704380
:10ACDC0093F8E02F062A09D1D3F8E83FC3F3031306
:10ACEC00033B032B02D8024AD05C7047002070470C
:10ACFC00BCE401004FF08053D3F83001421C04BF78
:10AD0C004FF0704393F8E00F062804D0A0F10A032B
:10AD1C0058425841704701207047000008B5FFF7B2
:10AD2C00C7FF40B14FF08053A44AD3F82433C3F388
:10AD3C000423C2F84035FFF7C9FF10B1A04BA14A5C
:10AD4C005A67FFF7D7FF48B14FF080534FF080425E
:10AD5C00D3F84432C3F34233C2F83C35FFF7B6FFA5
:10AD6C0030B1994AD2F8FC3023F08073C2F8FC3031
:10AD7C00FFF7C0FF40B14FF080430022C3F80C2115
:10AD8C00C3F81021C3F83825FFF7A0FF20B14FF00E
:10AD9C0080430322C3F8A025FFF798FF60B18B4BCB
:10ADAC000522C3F810260122C3F888260022C3F816
:10ADBC0018263F22C3F814264FF08053D3F83021C5
:10ADCC00501C09BF4FF07043D3F8343193F8E02F87
:10ADDC00D3F8E83F08BFC3F30313062A4ED1033B55
:10ADEC00032B03D87A4AD35C002B49D04FF0805206
:10ADFC00784BD2F80414C3F82015D2F80814C3F811
:10AE0C002415D2F80C14C3F82815D2F81014C3F872
:10AE1C002C15D2F81414C3F83015D2F81814C3F842
:10AE2C003415D2F81C14C3F84015D2F82014C3F80A
:10AE3C004415D2F82414C3F84815D2F82814C3F8D2
:10AE4C004C15D2F82C14C3F85015D2F83014C3F8A2
:10AE5C005415D2F83414C3F86015D2F83814C3F86A
:10AE6C006415D2F83C14C3F86815D2F84014C3F832
:10AE7C006C15D2F84424C3F8702501E00A2AB5D029
:10AE8C00FFF716FF48B14FF080534FF08042D3F8D4
:10AE9C00583203F04F03C2F8E43EFFF72BFF48B1E2
:10AEAC004FF08043D3F80024D10744BF6FF0010268
:10AEBC00C3F800244FF08053D3F83021062A0ED16A
:10AECC00D3F83431033B032B02D8434AD35CBBB1D8
:10AEDC00424AD2F83C3743F48063C2F83C374FF017
:10AEEC008053D3F830210A2A0AD1D3F834313BB13C
:10AEFC004FF08042D2F8E43E43F00F03C2F8E43E38
:10AF0C004FF01023D3F80022002A03DBD3F80422DD
:10AF1C00002A23DA324B0122C3F80425D3F800248B
:10AF2C00002AFBD04FF010221521C2F80012D3F8E2
:10AF3C000024002AFBD04FF010231522C3F8042262
:10AF4C00274BD3F80024002AFBD00022C3F8042599
:10AF5C00D3F80024002AFBD0FFF798FED3F8002288
:10AF6C00D20703D4D3F80432DB0722D51C4B0122C1
:10AF7C00C3F80425D3F80024002AFBD04FF010228C
:10AF8C000021C2F80012D3F80024002AFBD04FF0A5
:10AF9C0010230022C3F80422114BD3F80024002AFA
:10AFAC00FBD00022C3F80425D3F80024002AFBD0E0
:10AFBC00D2E70C4B0C4A1A6008BD00BF00300140B0
:10AFCC0000C007400DF0ADBA00ED00E000500040AD
:10AFDC00B4E4010000C00040B8E4010000100040DF
:10AFEC0000E00140F01A00200090D00338B5074C67
:10AFFC00051E04F1080318BF1C4623682BB11A6800
:10B00C0022605B6828469847F7E738BDAC210020E2
:10B01C0020B9054B01225A70FFF7E8BF012802D175
:10B02C00014A9070F8E77047A421002020B9034B27
:10B03C0001225A70FFF7DABF704700BFA42100202D
:10B04C0038B50E4C2378B3B90D486360A360236107
:10B05C00E36000F075F8054601F06CFD08B900F0EE
:10B06C007BF801232370074BD3F800340BB1012379
:10B07C00A370284638BD8525F5E700BFA421002024
:10B08C001DB001000000014037B50D4C00230DF13F
:10B09C0007008DF80730FEF7EDFFE368013BE36036
:10B0AC00E36833B9074BD3F8005415B900F066F8D0
:10B0BC00A5709DF80700FFF701F803B030BD00BF85
:10B0CC00A421002000000140012813B50CD0032856
:10B0DC0020D038B9134B0122C3F88020BFF34F8F17
:10B0EC00BFF36F8F02B010BD0F4C00230DF10700A2
:10B0FC008DF80730FEF7BEFF23780BB9FFF7A0FFE2
:10B10C00E3689DF807000133E3600123A370FEF7A9
:10B11C00D5FFE7E700F020F802B0BDE81040FFF7DC
:10B12C00B3BF00BF00E100E0A421002000F180408B
:10B13C00002382B0036003680193019B02B0704747
:10B14C00044B0246187918B91A6001229A8070478C
:10B15C0085207047B8210020074B1A68D20704D409
:10B16C00C02283F8002301221A604FF08043012291
:10B17C00C3F81825704700BF00E100E04FF0804293
:10B18C0008B50223C2F808334FF48270FFF7CEFFE4
:10B19C000123D360D2F81834DB03FBD408BD0000C4
:10B1AC004FF0804110B5D1F8003163B14FF480708D
:10B1BC00FFF7BCFF0D4B58790122C1F8082310B9D9
:10B1CC005A711B6898474FF08042D2F8043163B132
:10B1DC004FF48270FFF7AAFF0223C2F80833034B27
:10B1EC00BDE810401B680120184710BDB821002095
:10B1FC0000F1804000F5C040002382B0036003687A
:10B20C000193019B02B07047800000F1A040D0F880
:10B21C00002722F44032C0F80027D0F8003743EA68
:10B22C000143C0F8003770472DE9F74F00244E4D0D
:10B23C0001944FF48072012102F1804303F5C04365
:10B24C0090B21B68012B06D1D5F804330B4202D007
:10B25C00FFF7CEFF0C430432B2F5907F4FEA410169
:10B26C00EAD1414BD3F87C31012B0CD14FF4BE7099
:10B27C00FFF7BEFF4FF0A04344F00044D3F8202565
:10B28C000192C3F82025E3B2D3B1384F0025012633
:10B29C00344210D0AB0003F1804303F5C043D3F824
:10B2AC001005D3F8101557F8253023B1C1F301411F
:10B2BC00C0F3042098470135082D4FEA4606E7D124
:10B2CC00002C48DA294D4FF0A048294E4FF00009C8
:10B2DC00012716F9013B5A1C31D0C3F3C20202A953
:10B2EC000A44DCB212F8042C03F03F0A03F0070303
:10B2FC0007FA03F31A4222D00AF5E073504658F8C5
:10B30C002330C3F3014BBBF1020F0CBF032102210D
:10B31C00FFF77AFF07FA0AF3C8F8203505EB0A03A2
:10B32C0093F9303055F823304BB1A109032904D0DF
:10B33C00BBF1020F12D1012901D15046984709F1F6
:10B34C000109B9F1040FC4D1D8F820350193C8F81C
:10B35C002035002BB9D103B0BDE8F08FBBF1030F42
:10B36C00EDD10229E8E700BF00600040C0210020B9
:10B37C0010220020014B1B68184700BF1C22002024
:10B38C000E4B984237B50C4602D0002003B030BDAE
:10B39C0000230DF107008DF80730FEF76BFE084B0C
:10B3AC001D7915B901221C601A719DF80700FEF772
:10B3BC0085FE002DE9D01120E8E700BF00200040F9
:10B3CC001C2200204FF0402382B0D3F81821EAB1A0
:10B3DC000022C3F81821D3F818310193019B0C4BB0
:10B3EC00D97FFF2907D0987F01228A404FF0A041D6
:10B3FC0048B1C1F80C2500225A771A72D3E9002102
:10B40C00044802B01047C1F80825F4E702B07047B1
:10B41C00242200202C2200202DE9F74F90F80480E4
:10B42C00644E01924FF0240909FB08F906EB090B55
:10B43C009A469BF81C3007460C46002B40F0B58012
:10B44C0005685D492846FFF79BFF002840F0AF8058
:10B45C00019B46F80930CBF804A094F800E094F86E
:10B46C000CC04FF0A042012303FA0EF3BCF1010F04
:10B47C0094BFC2F80C35C2F808350EF5E073012103
:10B48C0042F823106378FF2B1FBF9940C2F80C15AC
:10B49C0003F5E0714FF0030918BF42F82190A27830
:10B4AC0008BF4FF0FF33FF2A1FBF02F5E0714FF0CA
:10B4BC00A04A4FF0040B4AF821B04FF0240101FBD5
:10B4CC00086618BF914686F82020E2783949F27751
:10B4DC0008BF4FF0FF39FF2A17D094F804A04FF0A3
:10B4EC00010B0BFA02FB4FF0A046BAF1000F4ED045
:10B4FC00C6F80CB502F5E0724FF0030B46F822B01B
:10B50C00242202FB081282F81EA0C5F808E5C5F833
:10B51C000C35A368C5F81095C5F82435637B003B42
:10B52C0018BF0123BCF1020F34D0BCF1030F34D08F
:10B53C00BCF1010F01D143F00203C5F85435A379D6
:10B54C00C5F8C0350723C5F80035019BABB13B6886
:10B55C00627943F307355201002DC3F30733D2B29E
:10B56C001EDB164C661986F8002301226D0903F0C8
:10B57C001F0302FA03F344F82530242303FB0811BC
:10B58C0000234B7701230B7703B0BDE8F08FC6F88F
:10B59C0008B5AFE743F00403CFE743F00603CCE76D
:10B5AC00074C03F00F03E254E7E70820ECE7112007
:10B5BC00EAE700BF24220020D1B3010000E100E043
:10B5CC0014ED00E02DE9F3410779474E24237B432A
:10B5DC001446F2180D46517F8646002940F08180B2
:10B5EC00F35823B114F0140F04BF0123537795E8DB
:10B5FC000F004FF0240C0CFB076C0CF10C0888E8C6
:10B60C000F009CF81F20FF2A08D09CF81E10012365
:10B61C0093404FF0A042C1B1C2F80835296821B15E
:10B62C0001F06043B3F1005F06D1AA6882B102F069
:10B63C006043B3F1005F0BD0242303FB07660023A8
:10B64C007377102002B0BDE8F081C2F80C35E5E745
:10B65C00DEF800306868C3F84415C3F84805E9689B
:10B66C00C3F834250022C3F83815C3F81821D3F8D1
:10B67C0018210192019A14F0010218BF0122C3F89B
:10B68C00502514F0020218BF0122C3F840252207EE
:10B69C005CBF01221A6124227A43B258B2B9D3F8A2
:10B6AC001821002AFBD0242303FB0766F27FFF2A14
:10B6BC0007D0B07F012393404FF0A04218B1C2F8DD
:10B6CC000C350020BEE7C2F80835BBE714F00400C7
:10B6DC004FF0400202D0C3F80823F2E7C3F804236A
:10B6EC00B0E71120AEE700BF2422002076DF7047C0
:10B6FC007ADF70477CDF70477FDF70478FDF7047E2
:10B70C00B1DF704762DF7047FEF7D8BA0388212B90
:10B71C0013B5044653D007D8112B1AD0132B46D08F
:10B72C00102B28D002B010BD522B60D0562B66D0F7
:10B73C003B2BF7D13548364B3649C01AC0080004AC
:10B74C0040F00400FEF742F9A0881321FFF7CEFF6A
:10B75C0026E02F4B2D483049C01AC008000440F099
:10B76C000300FEF733F901F005FD1E2002B0BDE821
:10B77C00104001F00EBD264B24482849C01AC008C1
:10B78C00000440F00300FEF721F901F0F3FC1E2049
:10B79C0001F0FFFC224BA1882248198000F022FF07
:10B7AC000028BFD002B0BDE81040FEF787BA1C4895
:10B7BC0000231A4685210088FFF79EFFF0E7144B03
:10B7CC0012481949C01AC008000440F00400FEF7E2
:10B7DC00FDF80023A0888DF8043001A98DF8053000
:10B7EC00FFF78CFF00289DD0FEF768FA9AE70C480B
:10B7FC0000231A4619460088FFF782FFD0E703485A
:10B80C00034B0A49C01AC008000499E794DD0100F3
:10B81C0064DD010028E50100E7E40100FFE401001C
:10B82C00F41A00206423002014E501003DE501001A
:10B83C0070B5124812491D46124BC01AC0080004BC
:10B84C0040F003001646FEF7C1F80121284602F02D
:10B85C0037F92A460446314602F098F9002363551D
:10B86C002378302B06D101F069FC2046BDE87040EE
:10B87C0002F034B9204601F02BFCF6E794DD010010
:10B88C0052E5010064DD010008B580B1032822D126
:10B89C00114B12481249C01AC008000440F00300B2
:10B8AC00FEF794F81920BDE8084001F072BC0A4B71
:10B8BC000A480C49C01AC008000440F00300FEF707
:10B8CC0085F801F057FC1C2001F063FC192001F0F5
:10B8DC0060FC1E20E7E708BD64DD010094DD01007B
:10B8EC0070E5010084E5010000B54FF48041B3B070
:10B8FC000020FDF7D1FE08B1FEF7E0F9FDF70CFED4
:10B90C0001F0BEFC08B1FEF7D9F901F08FFCFEF78F
:10B91C0093FA08B1FEF7D2F901F0CEF808B1FEF7B0
:10B92C00CDF9002307A90120079301F051F908B1C3
:10B93C00FEF7C4F907A801F0EDF908B1FEF7BEF95E
:10B94C00112346498DF80C30032203A8FFF7D2FED1
:10B95C0008B1FEF7B3F90023ADF820305023ADF851
:10B96C001C30A023ADF81E3007A8C823ADF8223038
:10B97C00FFF7BEFE08B1FEF7A1F93948002100F02F
:10B98C000BFD08B1FEF79AF9AC22002107A802F0D2
:10B99C0026F9344B03AC03F110051868596822469C
:10B9AC0003C20833AB421446F7D10DF1070103A8CB
:10B9BC00FFF7A8FE08B1FEF781F90323ADF80830B4
:10B9CC009DF807308DF80A3002238DF81C3040F2B8
:10B9DC00016302AAADF81E300123ADF82C300C9295
:10B9EC008DF898304FF496720023CDE929231E4828
:10B9FC001E4B309307A900F070FE08B1FEF75EF9FC
:10BA0C001948012100F066FE194B1A48079307A943
:10BA1C0000F0D6FD08B1FEF751F9174B1748039308
:10BA2C0003A901F00FFF08B1FEF748F9144B1548B4
:10BA3C001549C01AC008000440F00300FDF7C6FF0A
:10BA4C000948032100F0B9FE08B1FEF737F9FDF7FC
:10BA5C0073FE0028FBD1FFF74FF8F8E790E50100E3
:10BA6C0054230020B8E501004822002095B80100BD
:10BA7C0015B70100642300203DB8010040230020CD
:10BA8C0064DD010094DD010094E501000369C268E6
:10BA9C0093429CBF80681B18013B981A70472DE994
:10BAAC00F843D0E902940546A9EB04084068904598
:10BABC0020440F46144404D902F068F8EC60BDE849
:10BACC00F8834246A4EB090402F060F86868224649
:10BADC0007EB0801F0E72DE9F843C56806468946EF
:10BAEC0017464FF000083469B3687068A54228BF48
:10BAFC00E418013C621B5C1BBC4228BF3C469442D0
:10BB0C0028BF144649462844224602F03FF8B36841
:10BB1C002544AB4208BF00253F1BA044A144F5605F
:10BB2C00E1D14046BDE8F88310B5114C114AA26131
:10BB3C000223C4E90433104BE361A2644FF4007395
:10BB4C000E4A0F492362E26400231022E01DA36217
:10BB5C006362E362A3656365E365226502F072F8D4
:10BB6C000849204602F06EF82023A37110BD00BFD7
:10BB7C0070230020C8E50100F8230020E8230020F2
:10BB8C00D1E50100D5E5010070B5164B182400FB7A
:10BB9C0004451D4404FB00331646DC6A012C0ED010
:10BBAC00022C18D0E4B92846FFF770FF864204D85F
:10BBBC0032462846FFF773FF3446204670BD2846B0
:10BBCC00FFF764FF8642344628BF044622462846C7
:10BBDC00FFF765FFF1E72846BDE87040FFF77BBF34
:10BBEC000024EAE770230020FFF79EBF6DDF70474B
:10BBFC0079DF70477DDF704764DF70472DE9F04FC8
:10BC0C0085B000250E9CBDF83CB0B4F800A00191A5
:10BC1C00074690461E46A9463A884A450DDC45B172
:10BC2C002388013BA3EB0A039BB2FF2B3AD806F8FF
:10BC3C000A30002005B0BDE8F08F7A6852F8290070
:10BC4C00039000220DF10B0103A8FFF7D5FF00288C
:10BC5C00F0D19DF80B20424521D12288002D14BF34
:10BC6C000020022002EB0801014459451ADC3DB9C1
:10BC7C00013292B2019B2280B3542288013222807D
:10BC8C0022880DF10B01324403A8FFF7B5FF002801
:10BC9C00D0D121889DF80B200A442280012509F17E
:10BCAC000109B9E70C20C5E72DE9F341089FBDF860
:10BCBC0024801546CDE90078022204461E46FFF783
:10BCCC009DFF50B93346102229462046CDE908780D
:10BCDC0002B0BDE8F041FFF791BF02B0BDE8F081C2
:10BCEC002DE9F04F00231788138090F82D3085B084
:10BCFC0006460D4614465BB3082F01D80C2028E1EC
:10BD0C0002A8FFF773FF002840F023812388DDF899
:10BD1C0009100822EA54238801339BB21B2223808A
:10BD2C00EA54238801339BB2EA182380E950BDF80A
:10BD3C000D30938023889DF8082006339BB212F0B7
:10BD4C00FE0218BF01222380EA542388013323808A
:10BD5C00B378FBB123880433BB42CFD802A8FFF7DA
:10BD6C0047FF002840F0F58023880322EA542388FB
:10BD7C0001339BB219222380EA542388BDF8082092
:10BD8C0001339BB2E9182380EA54120A4A702388C3
:10BD9C0002332380F2789AB12388D91CB942ADD8EA
:10BDAC000221E954238801339BB201212380E954F9
:10BDBC0023880B449BB22380EA5423880B442380B2
:10BDCC007268AAB12388D91CB94297D8022192F97A
:10BDDC000020E954238801339BB20A212380E954C3
:10BDEC00238801339BB22380EA54238801332380B8
:10BDFC003389002B40F0A180338A5BB1CDE9004739
:10BE0C002B460722032106F11000FFF74DFF0028F7
:10BE1C0040F09F80338B5BB1CDE900472B46152258
:10BE2C00142106F11800FFF73FFF002840F0918025
:10BE3C00326A002A40F09080D6F82480B8F1000FC6
:10BE4C0030D0B8F804302188981C8A1C0244BA42BD
:10BE5C003FF654AFFE283FF651AF03336B542388A3
:10BE6C0001339BB2FF222380EA54238801339BB217
:10BE7C002380B8F80020EA54E918120A4A70208886
:10BE8C00023080B22080B8F804205AB1D8F80810DB
:10BE9C0000296BD0284401F079FE2388B8F80420DF
:10BEAC001344238096F82C30002B40F09880307887
:10BEBC0000284ED03388012B58D0228802F1020C76
:10BECC00BC453FF61BAF012805D1737802331344F0
:10BEDC009F42FFF413AF023FBF1ABFB202A905EB9A
:10BEEC000C00ADF80870FFF785FE90BB3178BDF8FB
:10BEFC000830022900F0B98072789A4202D39F422E
:10BF0C0080F0B180012940F0B280974293B2C0F02A
:10BF1C00AE80ADF808300821BDF80830FE2B3FF696
:10BF2C00EDAE22880133AB542288013292B22280CA
:10BF3C00A9542288134423800BE0CDE900472B46FB
:10BF4C000622022106F10800FFF7AEFE00283FF49E
:10BF5C0053AF05B0BDE8F08FB4F800C00CF1060388
:10BF6C00BB423FF6CBAE1188052901D80720F0E77C
:10BF7C006FF4486E01EB0E039BB24FF27D3E73459E
:10BF8C00F4D95388052BF1D96FF44860181880B296
:10BF9C007045EBD94FF6FF70814201D09942E5D83C
:10BFAC00052305F80C30238801339BB21221238022
:10BFBC00E954238801339BB223801188E954E81893
:10BFCC00090A4170238802339BB223805288EA54B9
:10BFDC00E918120A4A702388023323802CE7B36ACB
:10BFEC00002BC3D04FF000084FF00C0A4FF0160B8B
:10BFFC00B16A5FFA88F20AFB02F201EB0209B9F8A6
:10C00C000430981CFE283FF679AE208803332B545D
:10C01C00238801339BB2238005F803B023880133B6
:10C02C009BB223808A5AEA54E918120A4A70208873
:10C03C00023080B22080B9F804205AB1D9F8081027
:10C04C00002993D0284401F0A1FD2388B9F80420DD
:10C05C001344238096F82C2008F101085FFA88F32A
:10C06C009A42C5D823E7092156E79F42FBD2ADF887
:10C07C00087050E730B5C8B1F2B10024651C8D4290
:10C08C0006DA1588A54212D805196D789D420ED195
:10C09C00A14211D9005D48B1013880B230B10234EF
:10C0AC00A3B210FA84F4A14206DB138030BD055D07
:10C0BC0001352C44A4B2E1E70020F7E713B5134691
:10C0CC000022ADF806200DF106020446FFF7D2FF60
:10C0DC0010B1BDF80600204402B010BD034B1A8805
:10C0EC0082420CBF18460020704700BF1426002067
:10C0FC00024B9B6903B11847704700BFF82500201D
:10C10C0013B50B46497A02460E4871B9D0E90110B5
:10C11C001C7A002C18BF01465868FDF7BFFE78B199
:10C12C0002B0BDE81040FFF7E3BF0021197243696C
:10C13C0033B101218DF80410ADF8062001A8984701
:10C14C0002B010BDF82500204B8802889A4212D804
:10C15C0042889A420FD380888B8840F2F311884230
:10C16C0094BF021A421A9A4205D80844984234BF26
:10C17C000020012070470020704700000388122B1C
:10C18C0070B5014659D004D8102B1ED0112B44D0B9
:10C19C0070BD502BFCD12F4BC288DB899A42F7D152
:10C1AC00038A022BF4D186883046FFF797FF0546A9
:10C1BC000028EDD001F1120000F0E6F838BB6868F9
:10C1CC00FDF784FE0028E3D009E0C37B012BDFD10F
:10C1DC004FF6FF70FFF782FF054620B90420BDE83B
:10C1EC007040FFF785BF1C4A8E88068000230372BF
:10C1FC001368C0F80A305368C0F80E3010310A309A
:10C20C00FFF7A2FF134B6872DB89002BC0D12946C4
:10C21C003046BDE87040FFF773BF8088FFF75EFFC4
:10C22C0004460028B4D04068FDF750FE08B1FFF773
:10C23C005FFF4FF6FF732380AAE786883046FFF72F
:10C24C004DFF05460028A3D008310A30FFF77CFFCC
:10C25C006872DCE7F8250020282600200AB1FEF7DA
:10C26C0007B9FEF70EB973B50191019C06466CB186
:10C27C0000252C46294601A8FEF70DF918B106EB4E
:10C28C00440301349D800135142DF3D130463460C4
:10C29C0002B070BD2DE9F04303888488103B8DB04B
:10C2AC000A2B1ED8DFE803F006361D1D1D1D1D1DB3
:10C2BC001D5B3D002E4FBB68DB43009379686846DD
:10C2CC00FEF715F9009901A8FFF7CDFF0DF108084D
:10C2DC000026019B9E4207D3132C12D90420FDF794
:10C2EC00EDFC0DB0BDE8F08338F8029B002501355C
:10C2FC00494607EB8500FEF7C4F81E2DF7D1013631
:10C30C00E7E721461B48FEF7B3F81B482146FEF72A
:10C31C00AFF8E6E7174821460DB0BDE8F043FEF74D
:10C32C00B0B8027A15483F2A4FEA1215214694BF3D
:10C33C0000220122FFF792FF022D94BF002201225E
:10C34C000F482146FFF78AFF012D0E4894BF0022AB
:10C35C00012221460DB0BDE8F043FFF77FBF037A01
:10C36C00002BBED1427A0548C2F3C0022146F1E748
:10C37C0030260020382600203426002048260020B5
:10C38C004426002040260020008800F00100704761
:10C39C00A5DF7047B5DF704750B14FF0171303603E
:10C3AC001B2303711723C160C38083600020704777
:10C3BC000E2070472DE9FF4186880C46002E40F078
:10C3CC00D28003883A2B00F0948021D8102B5ED0B9
:10C3DC00112B00F08A80A37A002B00F0C480E18836
:10C3EC000020FFF7D5FF0346002840F0AA804FF449
:10C3FC00807262815D485E4A5E49801AC008E2889C
:10C40C00000440F0040004B0BDE8F041FDF7EBBAC5
:10C41C00552BE0D1564B554DC7885749ED1AED08B1
:10C42C002D0445F004083B4632464046FDF7DBFA46
:10C43C00E3885249A672172F3A4638BF17229A4200
:10C44C0028BF1A46404622810096FDF7D6FAE188AD
:10C45C003046FFF79FFF38B1FEF7BEFB4849024656
:10C46C0045F00100FDF7B6FAE27A002AB3D1E36891
:10C47C00002BB0D040F67721ADF80A202289ADF818
:10C48C000810ADF80C2002A920469847A3E7C37BFF
:10C49C00012B04BF0B88CB80CA880B8993429AD29C
:10C4AC00334B324D3749ED1AED082D0445F0040697
:10C4BC0030460023FDF797FAE1880020FFF768FF6C
:10C4CC0010B90123E37286E7112807D101232E4905
:10C4DC00A37200223046FDF77DFA7CE7FEF77CFB69
:10C4EC002A49024645F00100F5E71723CB808B6003
:10C4FC0071E74289CB881D489A4228BF1A461C4BCB
:10C50C00C01A172A4FEAD00038BF172200040A813C
:10C51C0033461F4940F00400FDF765FAE3686BB140
:10C52C00E27A5AB140F67722ADF808202289ADF8AC
:10C53C000A60ADF80C2002A92046984700236381BD
:10C54C0049E711280FD0FEF747FB084B0F4902466D
:10C55C0007481B1ADB081B0443F0010004B0BDE8BC
:10C56C00F041FDF737BA04B0BDE8F081BCDD010045
:10C57C0064DD01007FE70100D7E6010011E701004F
:10C58C0050E70100DCE5010019E601006BE6010053
:10C59C009CE60100B0DF704766DF704710B50021E4
:10C5AC0004464088FFF7F8FF034608B9237210BD14
:10C5BC00112801D10123F9E76368BDE81040184741
:10C5CC0060B159B10378DE2B0AD00B684360DE23CF
:10C5DC0003704FF6FF734380002070470E207047A6
:10C5EC000820704728B10378DE2B04D1418000204D
:10C5FC0070470E20704708207047F0B5054685B08F
:10C60C000C46002942D0002840D00B78DE2B3DD1BF
:10C61C0082884B889A4204D10B7A13B10846FFF7F3
:10C62C00BDFF2B88112B33D0512B0FD0012B2DD1CB
:10C63C002B7A012B2AD1A9886288914226D12046D7
:10C64C00237205B0BDE8F040FFF7A8BFAE88638841
:10C65C00B3421BD1AF79022F18D1AD7B2B1F022B0C
:10C66C0014D800211022684601F0B9FA052D18BF24
:10C67C004FF4C0736946304618BFADF804308DF8DE
:10C68C000070FFF787FF08B16368984705B0F0BDED
:10C69C006388AA889A4204BF4FF6FF736380F5E75C
:10C6AC0072DF704773DF704738B5012204460D46C0
:10C6BC00B0F8D810D0F8D400FFF700FD00B1057029
:10C6CC0004F13C0204F1D40104F15400BDE83840FB
:10C6DC00FFF7E6BF80F830107047F8B504460F46F8
:10C6EC00002966D0002864D091F87A301BB191F8FB
:10C6FC009830002B5FD1D7F8A030042B5BD0D7F843
:10C70C009C30042B57D04FF0000C84F802C007F17A
:10C71C0078060FCE251D0FC50FCE0FC596E8070066
:10C72C0085E8070084F830C0D7F8A4306363D7F8E5
:10C73C00A830A36304F1D4024FF6FF73C4F8EAC027
:10C74C00A4F8E830C4F8E420C4F8EDC022780AB9A3
:10C75C0084F85430224604F155011F25C4F8D41036
:10C76C00384622F8D85FFFF7BBFA08BB224604F123
:10C77C009301C4F8DC1007F13C0022F8E05FFFF7EE
:10C78C00AFFAA8B9A369A4F848304FF48073012517
:10C79C00A4F8503063692064014684F83C5063640B
:10C7AC0004F13C0204F15400FFF77AFF00B9257044
:10C7BC00F8BD0E20FCE70720FAE7F8B50778044629
:10C7CC000D46002F00F0F6800023C0F8EA30C0F8C8
:10C7DC00ED30C388817000F1EA060BB1012903D05A
:10C7EC00E37943B1022D06D1636BABB1012284F81E
:10C7FC00F1200820984704F1EB0304F1F10113F840
:10C80C00012B12B99942FAD117466B1E032B4ED845
:10C81C00DFE803F0050B0F1284F8F130EBE7A37996
:10C82C001BB194F8243003B95FB9E3790BB1002F35
:10C83C003FD1237A002B3ED1637A002B0CBF00250D
:10C84C000425636BA570002B37D0033D012D34D824
:10C85C00627992B394F8F2207ABB84F8F420012226
:10C86C0084F8F3200720984704F13C051822002196
:10C87C00284601F0B4F9E26A531E0121022B94F808
:10C88C00243084F83C1028BF0A4684F8512033B178
:10C89C00A36A5A1E022A28BF0B4684F85230A3788A
:10C8AC00042B1CD8DFE803F06D0D23335300002557
:10C8BC00C7E70225C5E70325C3E7002384F8F33057
:10C8CC00D2E7012384F831300023C4E91063C4F8A3
:10C8DC00E430022384F83C308023A4F84830A37859
:10C8EC00002B52D1636B002B60D100205DE0022342
:10C8FC0084F83130032384F83C302369A4F84830A1
:10C90C000023C4F8E430E36826646364E7E76369F2
:10C91C006364A369A4F848306379B3B194F8F23036
:10C92C009BB994F8F43083B1022384F8503004217D
:10C93C002046FFF7B9FE0028D1D1052384F8313009
:10C94C0004F1D403C4F8E430C9E70323F6E7E36940
:10C95C006364236AA4F84830637983B194F8F230A5
:10C96C006BB994F8F43053B1022384F8503004219D
:10C97C002046FFF799FE0028B1D10623DEE70423F9
:10C98C00DCE7002384F83130A9E7D4F8E4102A4618
:10C99C0004F15400FFF784FE38B994F8301094F881
:10C9AC005400FFF77FFE00289CD0F8BD94F83100AE
:10C9BC0098479AE70820F8E70388112B10B50C4626
:10C9CC000AD0262B1FD0102B05D1C37B012B02D1F3
:10C9DC008388A1F8E83010BD0022838881F8F2200A
:10C9EC00B1F8E8209A42F6D10B79002BF3D1012152
:10C9FC002046FFF7E2FE0028EDD0A36B002BEAD017
:10CA0C00BDE810401847037A013B012BE3D8897825
:10CA1C0005230131B1FBF3F303EB8303C91AC9B24C
:10CA2C00E6E710DF7047000013B504460949684675
:10CA3C00FEF777F8019808B902B010BDD0E90031C3
:10CA4C002046984718B16846FEF775F8F2E71120B2
:10CA5C00F2E700BFE0E7010013B50446074968465A
:10CA6C00FEF75FF8019B0BB902B010BD2046D3E96D
:10CA7C00002190476846FEF75EF8F3E7F8E70100FF
:10CA8C000B4991F816335A09EC231341DB0706D5F1
:10CA9C00084B9A683AB94FF480030B60704742F226
:10CAAC000200FDF70BB91A6842F480021A60704755
:10CABC0000E100E084210020F7B5194F3C7864BBFD
:10CACC00184E012520463570FFF7AEFF112821D0F6
:10CADC002046FFF7C1FF144B8DF8034018680190F6
:10CAEC000DF10300FDF7C6FA104901A8FFF799FFF5
:10CAFC000446B0FA80F0400938709DF80300FDF749
:10CB0C00DDFA3CB90A4B34701C70FFF7B9FF2846AC
:10CB1C00FFF7A2FF204603B0F0BD0824FAE700BFE0
:10CB2C00AD260020AC260020D9E70100E59C0100D1
:10CB3C00AE260020014B1878704700BFAD260020B0
:10CB4C0007B508496846FDF7ECFF019B13B903B024
:10CB5C005DF804FBD3E9002090476846FDF7EBFF36
:10CB6C00F3E700BFECE70100FFF7EABF60DF7047B7
:10CB7C0069DF704761DF704730B5134B1B7891B09C
:10CB8C00FBB1124D34240DF1020103A8ADF80240A3
:10CB9C00FFF7F0FF70B9294601A8FDF7C2FF029B11
:10CBAC00002BF0D003A8D3E90021904701A8FDF792
:10CBBC00C2FFF4E7052804D011B0BDE83040FDF702
:10CBCC007DB811B030BD00BFAF2600203CEA01009B
:10CBDC0030B50C4685B0002900F089800023CDE9E2
:10CBEC000133444A039301230A608DF804008DF845
:10CBFC00063001A906232020ADF80830FFF7B8FF56
:10CC0C0060B1FDF7E9FF3C4B3C4902463C481B1A1E
:10CC1C00DB081B0443F00100FCF7DCFE0023CDE92C
:10CC2C00013303932268012301A940208DF80530BC
:10CC3C00FFF79EFF60B1FDF7CFFF2F4B3149024646
:10CC4C002F481B1ADB081B0443F00100FCF7C2FE43
:10CC5C000023CDE90133039322680A2301A90120A3
:10CC6C008DF80430FFF784FF60B1FDF7B5FF224B60
:10CC7C002549024622481B1ADB081B0443F001001D
:10CC8C00FCF7A8FE0023CDE9023322684FF4B06311
:10CC9C0001A9A1200193FFF76BFF60B1FDF79CFF89
:10CCAC00154B1A49024616481B1ADB081B0443F0A5
:10CCBC000100FCF78FFE00252268039501A9A02036
:10CCCC00CDE90155FFF754FF034668B1FDF784FF2A
:10CCDC00094B0F4902460A481B1ADB081B0443F098
:10CCEC000100FCF777FE2B46184605B030BD0E232D
:10CCFC00FAE700BFE01A0020CCDD010004E80100D7
:10CD0C0064DD01004AE8010096E80100E2E8010058
:10CD1C0033E90100F8B506460768FFF727FF3368CB
:10CD2C00BB4205461DD91948194C1A49241AE40866
:10CD3C00240444F002042046FCF748FE33681649EC
:10CD4C003A462046FCF74FFE4FF080533268D3F83A
:10CD5C000C3112499B0203F100539A1A2046FCF73E
:10CD6C0039FE25B90E4B01221A702846F8BD28460B
:10CD7C00FDF732FF064B0B49024604481B1ADB0831
:10CD8C001B0443F00100FCF725FEEEE764DD010017
:10CD9C00CCDD010086E90100B5E90100E6E90100FE
:10CDAC00AF26002010EA01004BDF70471FB50E4C78
:10CDBC0001A8FFF7F9FF70B9214602A8FDF7B1FEF3
:10CDCC00039B002BF4D00198D3E90021904702A8D3
:10CDDC00FDF7B1FEF4E7052804D004B0BDE810401F
:10CDEC00FCF76CBF04B010BD54EA010038B5054D1A
:10CDFC00044645F001054FF47A40A847013CFAD1AE
:10CE0C0038BD00BF80EA01004FF0A0430322C3F8F5
:10CE1C0028274FF48062C3F80825704707B540688F
:10CE2C008DF80710002100F059FA01210DF10700CF
:10CE3C0000F080FA03B05DF804FB07B540688DF88C
:10CE4C000710012100F04AFA01210DF1070000F052
:10CE5C0071FA03B05DF804FB10B50446E06800F00D
:10CE6C004DFA0128FAD010BD10B500210446006817
:10CE7C0000F034FAC82000F04FFA2068012100F0CD
:10CE8C002DFABDE81040C82000F046BAF8B50223D0
:10CE9C000126C0E9006300220323C0E90223802796
:10CEAC004FF49473C0E90473044600F067FA054626
:10CEBC00002879D12046FFF7D7FF2046FFF7CCFF9B
:10CECC0012212046FFF7AAFF2046FFF7C5FF314687
:10CEDC002046FFF7A3FF27212046FFF7AEFF314680
:10CEEC002046FFF7AAFF29462046FFF7A6FF11218F
:10CEFC002046FFF793FF31462046FFF79EFF442163
:10CF0C002046FFF78BFF29462046FFF796FF0F219F
:10CF1C002046FFF792FF45212046FFF77FFF272190
:10CF2C002046FFF78AFF31462046FFF786FF294649
:10CF3C002046FFF782FF29462046FFF77EFF3C2163
:10CF4C002046FFF76BFF05212046FFF776FF1821DF
:10CF5C002046FFF763FF39462046FFF76EFF21217D
:10CF6C002046FFF75BFF29462046FFF766FF394650
:10CF7C002046FFF762FF4E212046FFF74FFF294660
:10CF8C002046FFF75AFF4F212046FFF747FF272186
:10CF9C002046FFF752FF20463146FFF74EFF204652
:10CFAC00FFF75AFF2846F8BD4FF0FF35FAE72DE999
:10CFBC00F74F1E4616F0FD0B9DF834309DF830806F
:10CFCC00019304460D461CD12621FFF727FF05EBE4
:10CFDC000B1A0027ABF11709B8F1000F4AD1B9F1C0
:10CFEC00F90F45D9019B002B42D0FF212046013778
:10CFFC00FFF723FF102FEFD10BF1010BBBF5947F43
:10D00C00E5D1012E22D824212046FFF707FF6FF02F
:10D01C001609002740F2111BEB1905EB091A002623
:10D02C000193B8F1000F2AD1B9F1F90F94BF1AF896
:10D03C000610FF2120460136FFF7FFFE102EF0D11F
:10D04C0009F10109D94507F11007E5D12046222144
:10D05C00FFF7E4FE2046F721FFF7EFFE20462021E4
:10D06C00FFF7DCFE204603B0BDE8F04FFFF7F4BE3F
:10D07C000021BBE71AF80710C943C9B2B6E7019BF8
:10D08C00995DD7E710B510210446FFF7C7FE20467F
:10D09C000121FFF7D2FEBDE810406420FFF7A6BEC9
:10D0AC0013B5094C2046FFF7DFFE00232046CDE9DF
:10D0BC00003306491A46FFF77AFF204602B0BDE856
:10D0CC001040FFF7DFBF00BF50360020B026002015
:10D0DC007FB50546FF2000F0EFF9802278230093FE
:10D0EC0011461248002300F07DFB00240223CDE9F9
:10D0FC000143232319462046FF260094822200F088
:10D10C0055FA20460A4B0B4A019400960A2100F06E
:10D11C0025FBCDE90064084B2A462D21204600F062
:10D12C001DFB04B0BDE87040FFF7BABF86EA0100F2
:10D13C00101B002060EA0100081B002000B5FF2036
:10D14C008DB000F0B9F9094902A800F07BFDFF236E
:10D15C000022CDE900324021054B02AA942000F0B8
:10D16C00FDFAFFF79DFF0DB05DF804FB69EA0100C5
:10D17C00101B00204FF0A0434FF00072C3F808259D
:10D18C004FF08052C3F808254FF08042C3F80825B1
:10D19C007047012303FA00F04FF0A043C3F81805C1
:10D1AC00C3F80C057047F8B54FF0A0444FF000776A
:10D1BC004FF080564FF08045C4F81875C820C4F85D
:10D1CC001865C4F81855C4F80875C4F80865C4F88F
:10D1DC000855C4F80C75FFF709FEC820C4F808758B
:10D1EC00FFF704FEC820C4F80C65FFF7FFFDC8204C
:10D1FC00C4F80865FFF7FAFDC820C4F80C55FFF712
:10D20C00F5FDC820C4F80855FFF7F0FDC4F80C75FF
:10D21C00C820C4F80C65C4F80C55FFF7E7FDC4F83A
:10D22C000875C4F80865C4F80855F8BD37B5124C34
:10D23C00FFF7EAFDFF25FFF7B6FF00F03DF80F48BA
:10D24C00FFF724FE204600954FF48773FA228021C5
:10D25C0000F0AEF84FF48773FA228021009500207D
:10D26C0000F0A6F8022000F0C7F8204603B0BDE895
:10D27C00304000F0BBB800BFB02600205036002074
:10D28C001FB50B4B0FCB6C4684E80F0040F60E43DA
:10D29C00ADF8003009238DF803304FF08053029322
:10D2AC0000231A4621460348FDF7BEFC04B010BD0E
:10D2BC0088F20100A8F201004FF0A0434021202287
:10D2CC000C20C3F81815C3F81825C3F81007C3F8B9
:10D2DC000C15C3F80C25D3F810357047064B53F8D2
:10D2EC002020012393404FF0A04201290CBFC2F82B
:10D2FC000835C2F80C35704768360020054A4FF0E7
:10D30C00A04352F82000D3F8103523FA00F000F0B7
:10D31C00010070476836002038B5044638B1044D1A
:10D32C0045F001054FF47A40A847013CFAD138BDCD
:10D33C00A0F2010030B50F4D2B6885B04FF0A04224
:10D34C000124C9B204FA03F3C2F80C350090019120
:10D35C00002209486946CDE90222FEF733F908B1EB
:10D36C00FCF7ACFC2B689C404FF0A043C3F808457D
:10D37C0005B030BD68360020ACF20100074A084BFE
:10D38C0012681A60074A12685A60074A12689A6053
:10D39C00064A1268DA600020704700BFFC1A0020B1
:10D3AC0068360020041B0020001B0020F81A002007
:10D3BC0010B50D4C2060BDF80800A08111F0070FCE
:10D3CC004FEAD10018BF01306082002021816281B8
:10D3DC00A282E38120820BB1B42B02D1A180E28026
:10D3EC0010BDA280E180FBE778360020014B18606D
:10D3FC00704700BF7836002003289CBF014B188271
:10D40C00704700BF783600202A4B30B59C88844288
:10D41C0009D3DC888C4206D3DC89B42C19D003D810
:10D42C0084B15A2C09D030BDB4F5877FFBD15C890F
:10D43C00013C241A0846A1B204E01C89013C641A80
:10D44C000146A0B21C8A032CEDD8DFE804F00F0BC8
:10D45C002B271C89013C201A5C89013C611A80B283
:10D46C0089B2EFE71C89013C201A80B21C898442E6
:10D47C00D9D35C898C42D6D35D8AC0F3CF0401FB2F
:10D48C00054100F007001C68802343FA00F040B20D
:10D49C00635662B923EA00036354C4E71C89013C58
:10D4AC00201A80B25C89013C611A89B2DEE7034321
:10D4BC00F2E700BF78360020F0B50B4900238C8AC8
:10D4CC009AB294420CD8F0BD0C6897B205FB064496
:10D4DC000132E0554D8A94B2A542F5D80133EEE7FE
:10D4EC0000229EB2F6E700BF783600202DE9F74FF8
:10D4FC001C462D4B0D4699888142064613D3DB887A
:10D50C00AB4210D39DF83030012B47D1A3B267004A
:10D51C000093013F4FF00008031B0FFA88FBBB453B
:10D52C001FFA88F920DB03B0BDE8F08F06EB0B0087
:10D53C00001B002815DB6818001B002811DB019369
:10D54C00009BE81A1FFA81FA10FA81F189B21FFACE
:10D55C0089F0FFF759FF0AF10101019B09B2B942A9
:10D56C00E4DB08F10108D8E700219944F7E73744D8
:10D57C000021BFB21FFA81F915FA81F189B2384640
:10D58C00FFF742FF09F1010109B28C42F2DC08F10C
:10D59C00010844451FFA88F7E9DCC4E74FF000089E
:10D5AC00013D461EF5E700BF783600202DE9F04F0F
:10D5BC0016463B4A8BB094881F46BDF850300793F3
:10D5CC0084429DF8543003938B469DF8583063D3B6
:10D5DC00D2888A4260D3B4425ED3BA425CD3A6EB03
:10D5EC000008A7EB0109B8F1000FB8BFC8F100089B
:10D5FC00B9F1000FB8BFC9F10009C9F100020492DA
:10D60C00B04234BF01224FF0FF320592B94234BF11
:10D61C0001224FF0FF320692A8EB09050024039A71
:10D62C000134012A5FFA84FA2AD10322BAFBF2F4FC
:10D63C0004EB4404AAEB040414F0FF0420D1039A75
:10D64C0000925946FF2209930890FFF74FFFDDE93E
:10D65C000803049AB2EB450F06DC86421CD0059AEF
:10D66C001044A5EB090580B2B8EB450FD7DB5F453D
:10D67C0012D0069A0BEB020145441FFA81FBCEE750
:10D68C00012200925946079A099308905446FFF7D5
:10D69C002DFFDDE90803DCE70BB0BDE8F08F00BF20
:10D6AC00783600202DE9F74F1C462B4B01919988B9
:10D6BC00BDF83090BDF834A08142054615D3DB8807
:10D6CC0001998B4211D3A18811F0070318BF0123D4
:10D6DC0003EBD103E188203A4A432168002702FB7F
:10D6EC000316E288B9B28A422FD803B0BDE8F08F96
:10D6FC0000F007030093009A96F800C0802343FAC9
:10D70C0002F2B9F1FF0F02EA0C0216D12AB1284439
:10D71C005246594680B2FFF777FE009B072B08BF95
:10D72C00013608F10108A2881FFA88F09042DFD375
:10D73C00530718BF01360137D3E7284480B212B122
:10D74C0052465946E7E74A46FBE7019B19444FF01E
:10D75C0000081FFA81FBE6E7783600202DE9F04F30
:10D76C00DFF87C908846B9F8041085B08142BDF88A
:10D77C0038A0BDF83CB0074609D3B9F806104145AE
:10D78C0005D3561E4446054616F8012F12B905B0AE
:10D79C00BDE8F08F9888B9F804C0D9880393284461
:10D7AC006045C4BF6418A4B2B9F8060004EB010CC0
:10D7BC00C8BF3D46844516F8010CC4BF44463D46DF
:10D7CC00202802BF64183D46A4B22846CDE900AB20
:10D7DC002146FFF767FF039B9A881544ADB2D3E748
:10D7EC007836002000292DE9F045B8BF0731114FDC
:10D7FC00C9104FF0000E1FFA8EF4944218DA079DF0
:10D80C0005EB040C4FEA0C1C002501FB040406E09C
:10D81C003E6814F808A066441E4406F808A01FFAD7
:10D82C0085F8414505F10105F2D80EF1010EE2E74C
:10D83C00BDE8F08578360020A8DF7047AADF704776
:10D84C0062DF7047F0B54FF6FF7303800B6803611E
:10D85C0095B02D4B04AA054603F11007164618681F
:10D86C005968144603C40833BB422246F7D1291D1C
:10D87C003046FFF7E5FF0446002841D101262B79FD
:10D88C008DF80A30AA1C02A93046ADF80860FFF7E3
:10D89C00D3FF0446002833D101461C220DA800F00A
:10D8AC009EF99DF834300C9423F00A0343F00A03DC
:10D8BC008DF83430154B0E934FF00D130F932B79CD
:10D8CC008DF80E300223ADF80C3011238DF8043096
:10D8DC008DF8053003AB089301AB09931923CDE9FF
:10D8EC000A446888ADF8283066F34204ADF82C3051
:10D8FC0008AAAB1D0DA98DF80640FFF79FFF044643
:10D90C00204615B0F0BD00BFC7330200D73302006C
:10D91C000388112B70B504460D4621D0502B04D032
:10D92C00102B01D183882B8070BD0F4B0F48228A9E
:10D93C000F49C01AC008000440F00300FCF74AF875
:10D94C00E288EB889A42EFD12E69002EECD0238A24
:10D95C00A08804F112022946B446BDE87040604725
:10D96C004FF6FF73DFE700BF64DD010094DD0100BB
:10D97C00B83302007F2805D8034B185C034B5B5C63
:10D98C001840704700207047F033020070340200DA
:10D99C00A0F16103192B98BF20387047A0F1410307
:10D9AC00192B98BF203070477F2805D8034B185C83
:10D9BC00034B5B5C1840704700207047F03302004B
:10D9CC0070340200A0F16103192B98BF2038704706
:10D9DC00A0F14103192B98BF203070477F299ABFC3
:10D9EC00017001206FF02E0070475AB10A787F2A1F
:10D9FC000AD800B10260002119605960501A18BF92
:10DA0C0001207047002070476FF02E007047000017
:10DA1C0008B5034B5B689B681B68984708BD00BF43
:10DA2C00181B002008B50921FFF7F2FF08BD000004
:10DA3C0038B5204B204A9B1A102B39D9044600F0DC
:10DA4C0053F904F1130020F00F021C4B186858B363
:10DA5C004FF0FF340025294611E041B103680B60FB
:10DA6C00044644F8042B00F040F9204638BD016808
:10DA7C00124B1960F4E70368014653B1184643682A
:10DA8C009342EAD09342F6D9A3423CBF1C460546CA
:10DA9C00F1E74DB16B689B1A6B60A31AEC18EA5056
:10DAAC0000F023F90434E0E700F01FF90024DCE770
:10DABC000024DAE7903E0020903600202C1B00203A
:10DACC0038B501FB00F42046FFF7B2FF054618B14C
:10DADC002246002100F083F8284638BD00284ED09D
:10DAEC0010B50446264B98423CD3264B984239D865
:10DAFC0000F0FAF8221F54F8040C234B1B68B3B146
:10DB0C00934230D219461B680BB39A42FAD844F8A8
:10DB1C00043C20600A60104483421DD12068D3F875
:10DB2C0004C0604420601B6844F8043C24E0164B9D
:10DB3C001A60002344F8043C206011E00021EDE75A
:10DB4C00226813444B6054F8043C0B6008E000233B
:10DB5C0044F8043C20600A604B68C8188242EFD03D
:10DB6C0000F0C3F810BD44F8043C206006490A607C
:10DB7C0010448342E2D000210029F1D0ECE7704739
:10DB8C0090360020903E00202C1B0020844640EA5A
:10DB9C00010313F0030F18D18446202A0BD32DE96F
:10DBAC00F007B1E8F807A0E8F807A2F12002202A54
:10DBBC00F7D2BDE8F007042A07D351F8043B40F82C
:10DBCC00043BA2F10402042AF7D2002A05D011F872
:10DBDC00013B00F8013B013AF9D16046704784469D
:10DBEC00002A2DD010F0030F04D000F8011B013ACD
:10DBFC0026D0F7E7C9B241EA012141EA0141202AC6
:10DC0C0012D3A2F120022DE9F0030B460C460D466F
:10DC1C000E460F4688468946A0E8FA03203AFBD206
:10DC2C00BDE8F00320320BD0042A05D340F8041BC6
:10DC3C00043A05D0042AF9D200F8011B013AFBD1B1
:10DC4C0060467047024610F0030F16D111F0030F17
:10DC5C0013D12DE9F0004FF001374FF0803351F81C
:10DC6C00044BA4EB070525EA04051D4002D142F83C
:10DC7C00044BF4E7A1F10401F0BC11F8013B02F8EC
:10DC8C00013B002BF9D1704700F1010110F0030F9B
:10DC9C0011D010F8012B002A23D010F0030F0AD05A
:10DCAC0010F8012B002A1CD010F0030F03D010F831
:10DCBC00012B002A15D02DE970004FF001324FF0E6
:10DCCC00803350F8044BA4EB020525EA04051D40F3
:10DCDC0000D1F6E7A0F1040070BC10F8012B002A6B
:0CDCEC00FBD1A0EB0100704770477047AF
:08DCF80039B00100000000003A
:10DD0000A1C2010000000000C5C901004822002096
:10DD1000C1C301005423002089C10100000000009C
:10DD20001DD901004023002007C601006423002004
:08DD300019B70100000000001A
:08DD3800D5B00100000000005D
:10DD400085CB010000000000B9CD010000000000FB
:10DD5000741B00203C1C0020441C00207C1B002065
:04DD600018000000A7
:10DD6400C6E4010000000000CCE401000000000053
:10DD7400D3E4010000000000E2E401000000000020
:10DD8400D7E4010000000000DCE401000000000012
:10DD940035DE0100000004040CDF01000000000077
:10DDA40030DF010000000000C0E4010000000000BA
:10DDB400A0E4010000000404C4E70100000004041E
:10DDC400D1E70100000003032DEA01000000030372
:10DDD40048EA01000000030396DF01000000000090
:08DDE4009FDF010000000000B8
:10DDEC0008DE01000000000014DE0100E01A002033
:10DDFC00000000000338FDD870470000F1930100CB
:10DE0C005D940100ED9301007274745F6C6F675F39
:10DE1C006261636B656E64004261636B656E647313
:10DE2C0020666C757368656400617070000000009A
:10DE3C00642000207F000000E42000201B5B313BAD
:10DE4C0033316D0025734C6F67732064726F707083
:10DE5C006564202825642925730D0A001B5B306D31
:10DE6C00002573003C25733E2025733A20002025A5
:10DE7C0030327800202020007C002563001B5B31B1
:10DE8C003B33306D001B5B313B33326D001B5B3120
:10DE9C003B33336D001B5B313B33346D001B5B310B
:10DEAC003B33356D001B5B313B33366D001B5B31F7
:10DEBC003B33376D007761726E696E6700696E6611
:10DECC006F0064656275670068DE010089DE010021
:10DEDC0048DE010091DE010099DE0100A1DE0100A7
:10DEEC00A9DE0100B1DE0100B9DE01000000000076
:10DEFC001DDF0100C1DE0100C9DE0100CEDE010024
:10DF0C006170705F627574746F6E00466174616CE1
:10DF1C00206572726F720053797374656D2072652F
:10DF2C00736574006170705F74696D6572000100D7
:10DF3C000600000000000000FC200020519D0100A4
:10DF4C0052544320696E7374616E636520616C7208
:10DF5C006561647920696E697469616C697A65645C
:10DF6C002E005254433A20696E697469616C697A67
:10DF7C0065642E000338FDD87047303132333435A8
:10DF8C00363738394142434445467077725F6D6786
:10DF9C006D7400736F72746C697374004E52465FCB
:10DFAC0053554343455353004E52465F4552524FCF
:10DFBC00525F5356435F48414E444C45525F4D4966
:10DFCC005353494E47004E52465F4552524F525F93
:10DFDC00534F46544445564943455F4E4F545F4555
:10DFEC004E41424C4544004E52465F4552524F52B0
:10DFFC005F494E5445524E414C004E52465F45527D
:10E00C00524F525F4E4F5F4D454D004E52465F454D
:10E01C0052524F525F4E4F545F464F554E44004E36
:10E02C0052465F4552524F525F4E4F545F535550BC
:10E03C00504F52544544004E52465F4552524F5237
:10E04C005F494E56414C49445F504152414D004E40
:10E05C0052465F4552524F525F494E56414C4944CD
:10E06C005F5354415445004E52465F4552524F52F5
:10E07C005F494E56414C49445F4C454E475448000D
:10E08C004E52465F4552524F525F494E56414C4993
:10E09C00445F464C414753004E52465F4552524FE7
:10E0AC00525F494E56414C49445F44415441004EE5
:10E0BC0052465F4552524F525F444154415F53495F
:10E0CC005A45004E52465F4552524F525F54494D8D
:10E0DC00454F5554004E52465F4552524F525F4E7B
:10E0EC00554C4C004E52465F4552524F525F464F74
:10E0FC005242494444454E004E52465F4552524F9F
:10E10C00525F494E56414C49445F41444452004E83
:10E11C0052465F4552524F525F42555359004E5230
:10E12C00465F4552524F525F434F4E4E5F434F55E1
:10E13C004E54004E52465F4552524F525F52455319
:10E14C004F5552434553004E52465F4552524F5223
:10E15C005F4D4F44554C455F4E4F545F494E4954AB
:10E16C0049414C495A4544004E52465F4552524F24
:10E17C00525F4D555445585F494E49545F4641498D
:10E18C004C4544004E52465F4552524F525F4D55DE
:10E19C005445585F4C4F434B5F4641494C454400F6
:10E1AC004E52465F4552524F525F4D555445585F43
:10E1BC00554E4C4F434B5F4641494C4544004E52E3
:10E1CC00465F4552524F525F4D555445585F434F31
:10E1DC004E445F494E49545F4641494C4544004EBC
:10E1EC0052465F4552524F525F4D4F44554C455F1E
:10E1FC00414C52454144595F494E495449414C495F
:10E20C005A4544004E52465F4552524F525F53544A
:10E21C004F524147455F46554C4C004E52465F4568
:10E22C0052524F525F4150495F4E4F545F494D50CF
:10E23C004C454D454E544544004E52465F45525256
:10E24C004F525F464541545552455F4E4F545F45C2
:10E25C004E41424C4544004E52465F4552524F523D
:10E26C005F494F5F50454E44494E47004E52465F02
:10E27C004552524F525F4452565F5457495F455274
:10E28C00525F4F56455252554E004E52465F4552C4
:10E29C00524F525F4452565F5457495F4552525F3A
:10E2AC00414E41434B004E52465F4552524F525FD6
:10E2BC004452565F5457495F4552525F444E414356
:10E2CC004B004E52465F4552524F525F424C455F97
:10E2DC00495053505F52585F504B545F5452554EF7
:10E2EC004341544544004E52465F4552524F525F93
:10E2FC00424C455F495053505F4348414E4E454C4C
:10E30C005F414C52454144595F4558495354530061
:10E31C004E52465F4552524F525F424C455F4950F8
:10E32C0053505F4C494E4B5F444953434F4E4E45FF
:10E33C0043544544004E52465F4552524F525F4241
:10E34C004C455F495053505F504545525F52454ACA
:10E35C00454354454400556E6B6E6F776E20657265
:10E36C00726F7220636F6465000000000000000093
:10E37C00A8DF010001000000B4DF01000200000072
:10E38C00D2DF010003000000F3DF010004000000F5
:10E39C0006E001000500000017E001000600000087
:10E3AC002BE001000700000043E001000800000022
:10E3BC005BE001000900000073E001000A000000AE
:10E3CC008CE001000B000000A4E001000C00000038
:10E3DC00BBE001000D000000CFE001000E000000CA
:10E3EC00E1E001000F000000F0E00100100000006F
:10E3FC0004E10100110000001BE10100120000000B
:10E40C002AE10100130000003FE101008000000040
:10E41C0053E101008100000074E101008200000062
:10E42C0090E1010083000000ACE1010084000000D9
:10E43C00CAE1010085000000EBE10100860000004C
:10E44C0010E201009000000027E2010091000000A2
:10E45C0045E201009200000063E20100008200002E
:10E46C0078E201000182000096E2010002820000C5
:10E47C00B2E2010000840000CEE201000184000041
:10E48C00F2E20100028400001CE30100038400009E
:10E49C0041E3010067667800FFFFFFFF0006FF0005
:10E4AC00000000400000000000000101000000011D
:10E4BC0001000000636C6F636B00434C4F434B00D7
:10E4CC004750494F54450050525300554152540047
:10E4DC005541525445005350494D0044657669638B
:10E4EC006520697320646973636F6E6E6563746510
:10E4FC00642E0044657669636520697320636F6ED2
:10E50C006E65637465642E005048592075706461A3
:10E51C00746520726571756573742E00474154548F
:10E52C0020436C69656E742054696D656F75742E2B
:10E53C000047415454205365727665722054696DBE
:10E54C00656F75742E00446973706C6179696E67C0
:10E55C002052657365727665642053637265656ECF
:10E56C002E2E2E0046617374204164766572746998
:10E57C0073696E672E2E2E00424C452049444C4543
:10E58C002E2E2E0045534C00456C656374726F6ED5
:10E59C006963205368656C66204C6162656C2073FE
:10E5AC007461727465642E2E2E0D0A007BCECFA280
:10E5BC002B24D9A86C4CDB9B40B08B6A5465726DD4
:10E5CC00696E616C005254540053454747455200E4
:10E5DC0052657175657374696E6720746F20757000
:10E5EC006461746520415454204D545520746F203F
:10E5FC002575206279746573206F6E20636F6E6E63
:10E60C00656374696F6E20307825782E0073645FB3
:10E61C00626C655F67617474635F65786368616E73
:10E62C0067655F6D74755F726571756573742829A4
:10E63C00206F6E20636F6E6E656374696F6E203031
:10E64C007825782072657475726E656420627573B6
:10E65C00792C2077696C6C2072657472792E00733A
:10E66C00645F626C655F67617474635F657863682F
:10E67C00616E67655F6D74755F72657175657374D6
:10E68C0028292072657475726E65642025732E00BE
:10E69C00415454204D545520757064617465642048
:10E6AC00746F202575206279746573206F6E2063FA
:10E6BC006F6E6E656374696F6E20307825782028D4
:10E6CC00726573706F6E7365292E005065657220CC
:10E6DC006F6E20636F6E6E656374696F6E20307839
:10E6EC0025782072657175657374656420616E2080
:10E6FC00415454204D5455206F6620257520627965
:10E70C007465732E005570646174696E6720415492
:10E71C0054204D545520746F2025752062797465F2
:10E72C00732028646573697265643A202575292005
:10E73C006F6E20636F6E6E656374696F6E203078D8
:10E74C0025782E0073645F626C655F676174747307
:10E75C005F65786368616E67655F6D74755F726520
:10E76C00706C7928292072657475726E6564202529
:10E77C00732E0052657175657374696E6720746FC2
:10E78C002075706461746520415454204D5455209B
:10E79C00746F202575206279746573206F6E206309
:10E7AC006F6E6E656374696F6E20307825782028E3
:10E7BC007265747279292E006E72665F626C655F89
:10E7CC0067617474006E72665F73646800010000A8
:10E7DC000700000038DD010038DD010008000000F2
:10E7EC0040DD010050DD01000800000038DD0100B3
:10E7FC0040DD01000800000073645F626C655F63BC
:10E80C0066675F73657428292072657475726E650E
:10E81C0064202573207768656E20617474656D7053
:10E82C0074696E6720746F2073657420424C455F69
:10E83C00434F4E4E5F4346475F4741502E00736433
:10E84C005F626C655F6366675F736574282920720D
:10E85C00657475726E6564202573207768656E200B
:10E86C00617474656D7074696E6720746F20736564
:10E87C007420424C455F4741505F4346475F524FBF
:10E88C004C455F434F554E542E0073645F626C656C
:10E89C005F6366675F73657428292072657475728F
:10E8AC006E6564202573207768656E2061747465CD
:10E8BC006D7074696E6720746F2073657420424CA0
:10E8CC00455F434F4D4D4F4E5F4346475F56535F39
:10E8DC00555549442E0073645F626C655F636667CF
:10E8EC005F73657428292072657475726E65642077
:10E8FC002573207768656E20617474656D7074691A
:10E90C006E6720746F2073657420424C455F4741DD
:10E91C005454535F4346475F415454525F544142F1
:10E92C005F53495A452E0073645F626C655F636682
:10E93C00675F73657428292072657475726E6564DF
:10E94C00202573207768656E20617474656D707412
:10E95C00696E6720746F2073657420424C455F4765
:10E96C00415454535F4346475F53455256494345C0
:10E97C005F4348414E4745442E00496E73756666A9
:10E98C00696369656E742052414D20616C6C6F63D4
:10E99C006174656420666F722074686520536F66BD
:10E9AC00744465766963652E004368616E67652003
:10E9BC007468652052414D207374617274206C6FC1
:10E9CC00636174696F6E2066726F6D203078257884
:10E9DC0020746F20307825782E004D6178696D7524
:10E9EC006D2052414D2073697A6520666F722061EB
:10E9FC0070706C69636174696F6E20697320307814
:10EA0C0025782E0073645F626C655F656E61626C65
:10EA1C006528292072657475726E65642025732EC5
:10EA2C00006E72665F7364685F626C650000000064
:10EA3C0000DD010038DD0100080000006E72665F29
:10EA4C007364685F736F6300F8DC010000DD010024
:10EA5C00080000005245534552564544004156416A
:10EA6C00494C41424C4500000000000000000000F1
:10EA7C00000000000338FDD87047FFFFFFFFFFFFC9
:10EA8C00FFFFFFFFFFFFFFFFFFFFFFFFFFFFFFFF8A
:10EA9C00FFFFFFFFFFFFFFFFFFFFFFFFFFFFFFFF7A
:10EAAC00FFFFFFFFFFFFFFFFFFFFFFFFFFFFFFFF6A
:10EABC00FFFFFFFFFFFFFFFFFFFFFFFFFFFFFFFF5A
